{
  "transactions": [
    {
      "hash": "0x563522486ab1c1d2b06126756b3f5ac247f3e52bfb79f648d99c116029d55bba",
      "transactionType": "CALL",
      "contractName": "StarkNetToken",
      "contractAddress": "0xCa14007Eff0dB1f8135f4C25B34De49AB0d42766",
      "function": "approve(address,uint256)",
      "arguments": [
        "0xF034d36ef237a9F648A68115C0feF257b70931Fc",
        "1000000000000000000"
      ],
      "transaction": {
        "type": "0x02",
        "from": "0xddb342ecc94236c29a5307d3757d0724d759453c",
        "to": "0xca14007eff0db1f8135f4c25b34de49ab0d42766",
        "gas": "0xfd59",
        "value": "0x0",
        "data": "0x095ea7b3000000000000000000000000f034d36ef237a9f648a68115c0fef257b70931fc0000000000000000000000000000000000000000000000000de0b6b3a7640000",
        "nonce": "0x15d",
        "accessList": []
      },
      "additionalContracts": [],
      "isFixedGasLimit": false
    },
    {
      "hash": "0xbb72eaea56b42d14abfad39b17bcc2641ce4b6e245491de49315ee4dc6939da2",
      "transactionType": "CALL",
      "contractName": "StarkNetToken",
      "contractAddress": "0xCa14007Eff0dB1f8135f4C25B34De49AB0d42766",
      "function": "transfer(address,uint256)",
      "arguments": [
        "0xF034d36ef237a9F648A68115C0feF257b70931Fc",
        "1000000000000000000"
      ],
      "transaction": {
        "type": "0x02",
        "from": "0xddb342ecc94236c29a5307d3757d0724d759453c",
        "to": "0xca14007eff0db1f8135f4c25b34de49ab0d42766",
        "gas": "0x133bd",
        "value": "0x0",
        "data": "0xa9059cbb000000000000000000000000f034d36ef237a9f648a68115c0fef257b70931fc0000000000000000000000000000000000000000000000000de0b6b3a7640000",
        "nonce": "0x15e",
        "accessList": []
      },
      "additionalContracts": [],
      "isFixedGasLimit": false
    },
    {
      "hash": "0xb6821787d5df75aafe794e89c7beef49790716d74cae063a78dee293b8a16663",
      "transactionType": "CALL",
      "contractName": null,
      "contractAddress": "0xF034d36ef237a9F648A68115C0feF257b70931Fc",
      "function": "deposit(uint256,uint256)",
      "arguments": [
        "1000000000000000000",
        "3040722755613298180574663566560756931742924622771086696307895439174846708260"
      ],
      "transaction": {
        "type": "0x02",
        "from": "0xddb342ecc94236c29a5307d3757d0724d759453c",
        "to": "0xf034d36ef237a9f648a68115c0fef257b70931fc",
        "gas": "0x2f644",
        "value": "0x38d7ea4c68000",
        "data": "0xe2bbb1580000000000000000000000000000000000000000000000000de0b6b3a764000006b8fcf379ffde86d47480e2ed78fdf870dac13bbb155b3c9e9c6af8bca0fa24",
        "nonce": "0x15f",
        "accessList": []
      },
      "additionalContracts": [],
      "isFixedGasLimit": false
    }
  ],
  "receipts": [
    {
      "transactionHash": "0x563522486ab1c1d2b06126756b3f5ac247f3e52bfb79f648d99c116029d55bba",
      "transactionIndex": "0x2",
      "blockHash": "0x062f6ba0686101a9ececc44a7bc323406ddaa3600bfa989268da0d2f7cff6af3",
      "blockNumber": "0x6a93ae",
      "from": "0xDdb342ecc94236c29a5307d3757d0724D759453C",
      "to": "0xCa14007Eff0dB1f8135f4C25B34De49AB0d42766",
      "cumulativeGasUsed": "0x1b4c2",
      "gasUsed": "0xb76c",
      "contractAddress": null,
      "logs": [
        {
          "address": "0xCa14007Eff0dB1f8135f4C25B34De49AB0d42766",
          "topics": [
            "0x8c5be1e5ebec7d5bd14f71427d1e84f3dd0314c0f7b2291e5b200ac8c7c3b925",
            "0x000000000000000000000000ddb342ecc94236c29a5307d3757d0724d759453c",
            "0x000000000000000000000000f034d36ef237a9f648a68115c0fef257b70931fc"
          ],
          "data": "0x0000000000000000000000000000000000000000000000000de0b6b3a7640000",
          "blockHash": "0x062f6ba0686101a9ececc44a7bc323406ddaa3600bfa989268da0d2f7cff6af3",
          "blockNumber": "0x6a93ae",
          "transactionHash": "0x563522486ab1c1d2b06126756b3f5ac247f3e52bfb79f648d99c116029d55bba",
          "transactionIndex": "0x2",
          "logIndex": "0x0",
          "removed": false
        }
      ],
      "status": "0x1",
      "logsBloom": "0x00000000000000000000000000000000000000000000000000000000000000000000000000000000000000000000000000000000000000000000000000200000000000000000000000000000000000000000000000000000000000000000000400000000000000000000000000000000400000000000000000000000400002000000000000000000000000000000000000000000000000000000000000000000020000000000000000000800000000000000000000000000000000000000000000000000000000020000000800000000000000000000000000800000000000000010000000000000000000000000000000000000001000000000000000000000",
      "type": "0x2",
      "effectiveGasPrice": "0x1239060c6"
    },
    {
      "transactionHash": "0xbb72eaea56b42d14abfad39b17bcc2641ce4b6e245491de49315ee4dc6939da2",
      "transactionIndex": "0x3",
      "blockHash": "0x062f6ba0686101a9ececc44a7bc323406ddaa3600bfa989268da0d2f7cff6af3",
      "blockNumber": "0x6a93ae",
      "from": "0xDdb342ecc94236c29a5307d3757d0724D759453C",
      "to": "0xCa14007Eff0dB1f8135f4C25B34De49AB0d42766",
      "cumulativeGasUsed": "0x2938f",
      "gasUsed": "0xdecd",
      "contractAddress": null,
      "logs": [
        {
          "address": "0xCa14007Eff0dB1f8135f4C25B34De49AB0d42766",
          "topics": [
            "0xddf252ad1be2c89b69c2b068fc378daa952ba7f163c4a11628f55a4df523b3ef",
            "0x000000000000000000000000ddb342ecc94236c29a5307d3757d0724d759453c",
            "0x000000000000000000000000f034d36ef237a9f648a68115c0fef257b70931fc"
          ],
          "data": "0x0000000000000000000000000000000000000000000000000de0b6b3a7640000",
          "blockHash": "0x062f6ba0686101a9ececc44a7bc323406ddaa3600bfa989268da0d2f7cff6af3",
          "blockNumber": "0x6a93ae",
          "transactionHash": "0xbb72eaea56b42d14abfad39b17bcc2641ce4b6e245491de49315ee4dc6939da2",
          "transactionIndex": "0x3",
          "logIndex": "0x1",
          "removed": false
        }
      ],
      "status": "0x1",
      "logsBloom": "0x00000000000000000000000000000000000000000000000000000000000000000000000000000000000000000000000000000000000000000000000000000000000000000000000000000008000000000000000000000000000000000000000400000000000000000000000000000000400000000000000000000010400002000000000000000000000000000000000000000000000000000000000000000000000000000000000000000800000000000000000000000000000000000000000000000002000000020000000800000000000000000000000000800000000000000000000000000000000000000000000000000000001000000000000000000000",
      "type": "0x2",
      "effectiveGasPrice": "0x1239060c6"
    },
    {
      "transactionHash": "0xb6821787d5df75aafe794e89c7beef49790716d74cae063a78dee293b8a16663",
      "transactionIndex": "0x4",
      "blockHash": "0x062f6ba0686101a9ececc44a7bc323406ddaa3600bfa989268da0d2f7cff6af3",
      "blockNumber": "0x6a93ae",
      "from": "0xDdb342ecc94236c29a5307d3757d0724D759453C",
      "to": "0xF034d36ef237a9F648A68115C0feF257b70931Fc",
      "cumulativeGasUsed": "0x49a08",
      "gasUsed": "0x20679",
      "contractAddress": null,
      "logs": [
        {
          "address": "0xCa14007Eff0dB1f8135f4C25B34De49AB0d42766",
          "topics": [
            "0x8c5be1e5ebec7d5bd14f71427d1e84f3dd0314c0f7b2291e5b200ac8c7c3b925",
            "0x000000000000000000000000f034d36ef237a9f648a68115c0fef257b70931fc",
            "0x000000000000000000000000ce5485cfb26914c5dce00b9baf0580364dafc7a4"
          ],
          "data": "0x0000000000000000000000000000000000000000000000000de0b6b3a7640000",
          "blockHash": "0x062f6ba0686101a9ececc44a7bc323406ddaa3600bfa989268da0d2f7cff6af3",
          "blockNumber": "0x6a93ae",
          "transactionHash": "0xb6821787d5df75aafe794e89c7beef49790716d74cae063a78dee293b8a16663",
          "transactionIndex": "0x4",
          "logIndex": "0x2",
          "removed": false
        },
        {
          "address": "0xCa14007Eff0dB1f8135f4C25B34De49AB0d42766",
          "topics": [
            "0x8c5be1e5ebec7d5bd14f71427d1e84f3dd0314c0f7b2291e5b200ac8c7c3b925",
            "0x000000000000000000000000f034d36ef237a9f648a68115c0fef257b70931fc",
            "0x000000000000000000000000ce5485cfb26914c5dce00b9baf0580364dafc7a4"
          ],
          "data": "0x0000000000000000000000000000000000000000000000000000000000000000",
          "blockHash": "0x062f6ba0686101a9ececc44a7bc323406ddaa3600bfa989268da0d2f7cff6af3",
          "blockNumber": "0x6a93ae",
          "transactionHash": "0xb6821787d5df75aafe794e89c7beef49790716d74cae063a78dee293b8a16663",
          "transactionIndex": "0x4",
          "logIndex": "0x3",
          "removed": false
        },
        {
          "address": "0xCa14007Eff0dB1f8135f4C25B34De49AB0d42766",
          "topics": [
            "0xddf252ad1be2c89b69c2b068fc378daa952ba7f163c4a11628f55a4df523b3ef",
            "0x000000000000000000000000f034d36ef237a9f648a68115c0fef257b70931fc",
            "0x000000000000000000000000ce5485cfb26914c5dce00b9baf0580364dafc7a4"
          ],
          "data": "0x0000000000000000000000000000000000000000000000000de0b6b3a7640000",
          "blockHash": "0x062f6ba0686101a9ececc44a7bc323406ddaa3600bfa989268da0d2f7cff6af3",
          "blockNumber": "0x6a93ae",
          "transactionHash": "0xb6821787d5df75aafe794e89c7beef49790716d74cae063a78dee293b8a16663",
          "transactionIndex": "0x4",
          "logIndex": "0x4",
          "removed": false
        },
        {
          "address": "0xE2Bb56ee936fd6433DC0F6e7e3b8365C906AA057",
          "topics": [
            "0xdb80dd488acf86d17c747445b0eabb5d57c541d3bd7b6b87af987858e5066b2b",
            "0x000000000000000000000000ce5485cfb26914c5dce00b9baf0580364dafc7a4",
            "0x0594c1582459ea03f77deaf9eb7e3917d6994a03c13405ba42867f83d85f085d",
            "0x01b64b1b3b690b43b9b514fb81377518f4039cd3e4f4914d8a6bdf01d679fb19"
          ],
          "data": "0x0000000000000000000000000000000000000000000000000000000000000060000000000000000000000000000000000000000000000000000000000000264300000000000000000000000000000000000000000000000000038d7ea4c680000000000000000000000000000000000000000000000000000000000000000005000000000000000000000000ca14007eff0db1f8135f4c25b34de49ab0d42766000000000000000000000000f034d36ef237a9f648a68115c0fef257b70931fc06b8fcf379ffde86d47480e2ed78fdf870dac13bbb155b3c9e9c6af8bca0fa240000000000000000000000000000000000000000000000000de0b6b3a76400000000000000000000000000000000000000000000000000000000000000000000",
          "blockHash": "0x062f6ba0686101a9ececc44a7bc323406ddaa3600bfa989268da0d2f7cff6af3",
          "blockNumber": "0x6a93ae",
          "transactionHash": "0xb6821787d5df75aafe794e89c7beef49790716d74cae063a78dee293b8a16663",
          "transactionIndex": "0x4",
          "logIndex": "0x5",
          "removed": false
        },
        {
          "address": "0xcE5485Cfb26914C5dcE00B9BAF0580364daFC7a4",
          "topics": [
            "0x5f971bd00bf3ffbca8a6d72cdd4fd92cfd4f62636161921d1e5a64f0b64ccb6d",
            "0x000000000000000000000000f034d36ef237a9f648a68115c0fef257b70931fc",
            "0x000000000000000000000000ca14007eff0db1f8135f4c25b34de49ab0d42766",
            "0x06b8fcf379ffde86d47480e2ed78fdf870dac13bbb155b3c9e9c6af8bca0fa24"
          ],
          "data": "0x0000000000000000000000000000000000000000000000000de0b6b3a7640000000000000000000000000000000000000000000000000000000000000000264300000000000000000000000000000000000000000000000000038d7ea4c68000",
          "blockHash": "0x062f6ba0686101a9ececc44a7bc323406ddaa3600bfa989268da0d2f7cff6af3",
          "blockNumber": "0x6a93ae",
          "transactionHash": "0xb6821787d5df75aafe794e89c7beef49790716d74cae063a78dee293b8a16663",
          "transactionIndex": "0x4",
          "logIndex": "0x6",
          "removed": false
        }
      ],
      "status": "0x1",
      "logsBloom": "0x0000000000000000020000000002000000000000000000000000000000000040000000000000000000000000000000000000000000000400000000000020000000000000000000000000000808000000000000000000004000100000000000000000000010000000000000000000000000000000000000000000001000000a002000000000000000000010000400000000000000000200000000020000000010021000000000000000000820000000001000000000000020000000000000000000000002000000024010000800000000000000200000000000800000000000000010000000010000000000020084000000000000001008000000000000000000",
      "type": "0x2",
      "effectiveGasPrice": "0x1239060c6"
    }
  ],
  "libraries": [],
  "pending": [],
  "returns": {},
  "timestamp": 1730393813,
  "chain": 11155111,
  "multi": false,
  "commit": "5c94acc"
}