{
  "transactions": [
    {
      "hash": "0xddc221cc523b600ba7c4c4f0d813af013f8ab6e4aa5a59381c330c71d0a74905",
      "transactionType": "CALL",
      "contractName": "StarkNetToken",
      "contractAddress": "0xCa14007Eff0dB1f8135f4C25B34De49AB0d42766",
      "function": "approve(address,uint256)",
      "arguments": [
        "0xc64c3878f6DAec5b8B24E70af3D09B35AAb2Bc18",
        "500000"
      ],
      "transaction": {
        "type": "0x02",
        "from": "0xddb342ecc94236c29a5307d3757d0724d759453c",
        "to": "0xca14007eff0db1f8135f4c25b34de49ab0d42766",
        "gas": "0xfd27",
        "value": "0x0",
        "data": "0x095ea7b3000000000000000000000000c64c3878f6daec5b8b24e70af3d09b35aab2bc18000000000000000000000000000000000000000000000000000000000007a120",
        "nonce": "0x192",
        "accessList": []
      },
      "additionalContracts": [],
      "isFixedGasLimit": false
    },
    {
      "hash": "0xb7704a7f8457491485e9baa07dae8c7fbb063ccfc6de6a9f476a423c53faaa23",
      "transactionType": "CALL",
      "contractName": null,
      "contractAddress": "0xc64c3878f6DAec5b8B24E70af3D09B35AAb2Bc18",
      "function": "depositAndCreateOrder(uint128,uint256,uint128,uint128,address,address,uint128)",
      "arguments": [
        "500000",
        "3516968716241536301976474590207032820376647904609550662769937050391228492782",
        "1730810896",
        "1730810960",
        "0xCa14007Eff0dB1f8135f4C25B34De49AB0d42766",
        "0xCa14007Eff0dB1f8135f4C25B34De49AB0d42766",
        "10000000000000000"
      ],
      "transaction": {
        "type": "0x02",
        "from": "0xddb342ecc94236c29a5307d3757d0724d759453c",
        "to": "0xc64c3878f6daec5b8b24e70af3d09b35aab2bc18",
        "gas": "0x3e8a1",
        "value": "0x2386f26fc10000",
        "data": "0x5f7e7946000000000000000000000000000000000000000000000000000000000007a12007c688a3f0ca14aff5af96065787cd857af50c0dc55f2b19d0b464190cf4abee00000000000000000000000000000000000000000000000000000000672a141000000000000000000000000000000000000000000000000000000000672a1450000000000000000000000000ca14007eff0db1f8135f4c25b34de49ab0d42766000000000000000000000000ca14007eff0db1f8135f4c25b34de49ab0d42766000000000000000000000000000000000000000000000000002386f26fc10000",
        "nonce": "0x193",
        "accessList": []
      },
      "additionalContracts": [],
      "isFixedGasLimit": false
    }
  ],
  "receipts": [
    {
      "transactionHash": "0xddc221cc523b600ba7c4c4f0d813af013f8ab6e4aa5a59381c330c71d0a74905",
      "transactionIndex": "0xe",
      "blockHash": "0x1957467dfb7ea5493f6d26566b3d95c2fc0409358a89b60dba63031aa05e97c9",
      "blockNumber": "0x6b11ed",
      "from": "0xDdb342ecc94236c29a5307d3757d0724D759453C",
      "to": "0xCa14007Eff0dB1f8135f4C25B34De49AB0d42766",
      "cumulativeGasUsed": "0x4388b1",
      "gasUsed": "0xb748",
      "contractAddress": null,
      "logs": [
        {
          "address": "0xCa14007Eff0dB1f8135f4C25B34De49AB0d42766",
          "topics": [
            "0x8c5be1e5ebec7d5bd14f71427d1e84f3dd0314c0f7b2291e5b200ac8c7c3b925",
            "0x000000000000000000000000ddb342ecc94236c29a5307d3757d0724d759453c",
            "0x000000000000000000000000c64c3878f6daec5b8b24e70af3d09b35aab2bc18"
          ],
          "data": "0x000000000000000000000000000000000000000000000000000000000007a120",
          "blockHash": "0x1957467dfb7ea5493f6d26566b3d95c2fc0409358a89b60dba63031aa05e97c9",
          "blockNumber": "0x6b11ed",
          "transactionHash": "0xddc221cc523b600ba7c4c4f0d813af013f8ab6e4aa5a59381c330c71d0a74905",
          "transactionIndex": "0xe",
          "logIndex": "0x26",
          "removed": false
        }
      ],
      "status": "0x1",
      "logsBloom": "0x00000000000000000000000000000000000000000000000000000000000000000000000000000000000000000000000000000000000000000000000000200000000000000000000000000000000000000000000000000000000000000000000400000000000000000000000000000000400000000000000000000000400000008000000000000000000000800000000040000000000000000000000000000000020000000000000000000000000000000000000000000000000000000000000000000000000000020000000000000000000000000000000000800000000000000010000000000000000000000000000000000000001000000000000000000000",
      "type": "0x2",
      "effectiveGasPrice": "0x2c5119e5b"
    },
    {
      "transactionHash": "0xb7704a7f8457491485e9baa07dae8c7fbb063ccfc6de6a9f476a423c53faaa23",
      "transactionIndex": "0xf",
      "blockHash": "0x1957467dfb7ea5493f6d26566b3d95c2fc0409358a89b60dba63031aa05e97c9",
      "blockNumber": "0x6b11ed",
      "from": "0xDdb342ecc94236c29a5307d3757d0724D759453C",
      "to": "0xc64c3878f6DAec5b8B24E70af3D09B35AAb2Bc18",
      "cumulativeGasUsed": "0x46347d",
      "gasUsed": "0x2abcc",
      "contractAddress": null,
      "logs": [
        {
          "address": "0xCa14007Eff0dB1f8135f4C25B34De49AB0d42766",
          "topics": [
            "0x8c5be1e5ebec7d5bd14f71427d1e84f3dd0314c0f7b2291e5b200ac8c7c3b925",
            "0x000000000000000000000000ddb342ecc94236c29a5307d3757d0724d759453c",
            "0x000000000000000000000000c64c3878f6daec5b8b24e70af3d09b35aab2bc18"
          ],
          "data": "0x0000000000000000000000000000000000000000000000000000000000000000",
          "blockHash": "0x1957467dfb7ea5493f6d26566b3d95c2fc0409358a89b60dba63031aa05e97c9",
          "blockNumber": "0x6b11ed",
          "transactionHash": "0xb7704a7f8457491485e9baa07dae8c7fbb063ccfc6de6a9f476a423c53faaa23",
          "transactionIndex": "0xf",
          "logIndex": "0x27",
          "removed": false
        },
        {
          "address": "0xCa14007Eff0dB1f8135f4C25B34De49AB0d42766",
          "topics": [
            "0xddf252ad1be2c89b69c2b068fc378daa952ba7f163c4a11628f55a4df523b3ef",
            "0x000000000000000000000000ddb342ecc94236c29a5307d3757d0724d759453c",
            "0x000000000000000000000000c64c3878f6daec5b8b24e70af3d09b35aab2bc18"
          ],
          "data": "0x000000000000000000000000000000000000000000000000000000000007a120",
          "blockHash": "0x1957467dfb7ea5493f6d26566b3d95c2fc0409358a89b60dba63031aa05e97c9",
          "blockNumber": "0x6b11ed",
          "transactionHash": "0xb7704a7f8457491485e9baa07dae8c7fbb063ccfc6de6a9f476a423c53faaa23",
          "transactionIndex": "0xf",
          "logIndex": "0x28",
          "removed": false
        },
        {
          "address": "0xCa14007Eff0dB1f8135f4C25B34De49AB0d42766",
          "topics": [
            "0x8c5be1e5ebec7d5bd14f71427d1e84f3dd0314c0f7b2291e5b200ac8c7c3b925",
            "0x000000000000000000000000c64c3878f6daec5b8b24e70af3d09b35aab2bc18",
            "0x000000000000000000000000ce5485cfb26914c5dce00b9baf0580364dafc7a4"
          ],
          "data": "0x0000000000000000000000000000000000000000000000000000000000000000",
          "blockHash": "0x1957467dfb7ea5493f6d26566b3d95c2fc0409358a89b60dba63031aa05e97c9",
          "blockNumber": "0x6b11ed",
          "transactionHash": "0xb7704a7f8457491485e9baa07dae8c7fbb063ccfc6de6a9f476a423c53faaa23",
          "transactionIndex": "0xf",
          "logIndex": "0x29",
          "removed": false
        },
        {
          "address": "0xCa14007Eff0dB1f8135f4C25B34De49AB0d42766",
          "topics": [
            "0x8c5be1e5ebec7d5bd14f71427d1e84f3dd0314c0f7b2291e5b200ac8c7c3b925",
            "0x000000000000000000000000c64c3878f6daec5b8b24e70af3d09b35aab2bc18",
            "0x000000000000000000000000ce5485cfb26914c5dce00b9baf0580364dafc7a4"
          ],
          "data": "0x000000000000000000000000000000000000000000000000000000000007a120",
          "blockHash": "0x1957467dfb7ea5493f6d26566b3d95c2fc0409358a89b60dba63031aa05e97c9",
          "blockNumber": "0x6b11ed",
          "transactionHash": "0xb7704a7f8457491485e9baa07dae8c7fbb063ccfc6de6a9f476a423c53faaa23",
          "transactionIndex": "0xf",
          "logIndex": "0x2a",
          "removed": false
        },
        {
          "address": "0xCa14007Eff0dB1f8135f4C25B34De49AB0d42766",
          "topics": [
            "0x8c5be1e5ebec7d5bd14f71427d1e84f3dd0314c0f7b2291e5b200ac8c7c3b925",
            "0x000000000000000000000000c64c3878f6daec5b8b24e70af3d09b35aab2bc18",
            "0x000000000000000000000000ce5485cfb26914c5dce00b9baf0580364dafc7a4"
          ],
          "data": "0x0000000000000000000000000000000000000000000000000000000000000000",
          "blockHash": "0x1957467dfb7ea5493f6d26566b3d95c2fc0409358a89b60dba63031aa05e97c9",
          "blockNumber": "0x6b11ed",
          "transactionHash": "0xb7704a7f8457491485e9baa07dae8c7fbb063ccfc6de6a9f476a423c53faaa23",
          "transactionIndex": "0xf",
          "logIndex": "0x2b",
          "removed": false
        },
        {
          "address": "0xCa14007Eff0dB1f8135f4C25B34De49AB0d42766",
          "topics": [
            "0xddf252ad1be2c89b69c2b068fc378daa952ba7f163c4a11628f55a4df523b3ef",
            "0x000000000000000000000000c64c3878f6daec5b8b24e70af3d09b35aab2bc18",
            "0x000000000000000000000000ce5485cfb26914c5dce00b9baf0580364dafc7a4"
          ],
          "data": "0x000000000000000000000000000000000000000000000000000000000007a120",
          "blockHash": "0x1957467dfb7ea5493f6d26566b3d95c2fc0409358a89b60dba63031aa05e97c9",
          "blockNumber": "0x6b11ed",
          "transactionHash": "0xb7704a7f8457491485e9baa07dae8c7fbb063ccfc6de6a9f476a423c53faaa23",
          "transactionIndex": "0xf",
          "logIndex": "0x2c",
          "removed": false
        },
        {
          "address": "0xE2Bb56ee936fd6433DC0F6e7e3b8365C906AA057",
          "topics": [
            "0xdb80dd488acf86d17c747445b0eabb5d57c541d3bd7b6b87af987858e5066b2b",
            "0x000000000000000000000000ce5485cfb26914c5dce00b9baf0580364dafc7a4",
            "0x0594c1582459ea03f77deaf9eb7e3917d6994a03c13405ba42867f83d85f085d",
            "0x008bce41827dd5484d80312a2e43bc42a896e3fcf75bf84c2b49339168dfa00a"
          ],
          "data": "0x00000000000000000000000000000000000000000000000000000000000000600000000000000000000000000000000000000000000000000000000000002746000000000000000000000000000000000000000000000000002386f26fc10000000000000000000000000000000000000000000000000000000000000000000f000000000000000000000000ca14007eff0db1f8135f4c25b34de49ab0d42766000000000000000000000000c64c3878f6daec5b8b24e70af3d09b35aab2bc1807c688a3f0ca14aff5af96065787cd857af50c0dc55f2b19d0b464190cf4abee000000000000000000000000000000000000000000000000000000000007a120000000000000000000000000000000000000000000000000000000000000000000000000000000000000000000000000000000000000000000000000000000090000000000000000000000000000000000000000000000000000000000000000000000000000000000000000ca14007eff0db1f8135f4c25b34de49ab0d42766000000000000000000000000ddb342ecc94236c29a5307d3757d0724d759453c000000000000000000000000ca14007eff0db1f8135f4c25b34de49ab0d42766000000000000000000000000000000000000000000000000002386f26fc1000000000000000000000000000000000000000000000000000000000000672a141000000000000000000000000000000000000000000000000000000000672a1450000000000000000000000000000000000000000000000000000000000007a12007c688a3f0ca14aff5af96065787cd857af50c0dc55f2b19d0b464190cf4abee",
          "blockHash": "0x1957467dfb7ea5493f6d26566b3d95c2fc0409358a89b60dba63031aa05e97c9",
          "blockNumber": "0x6b11ed",
          "transactionHash": "0xb7704a7f8457491485e9baa07dae8c7fbb063ccfc6de6a9f476a423c53faaa23",
          "transactionIndex": "0xf",
          "logIndex": "0x2d",
          "removed": false
        },
        {
          "address": "0xcE5485Cfb26914C5dcE00B9BAF0580364daFC7a4",
          "topics": [
            "0x2203a49c69f1a46c1164f5e4a30643dd77b7c59c0ff9bc433256048365c247f1",
            "0x000000000000000000000000c64c3878f6daec5b8b24e70af3d09b35aab2bc18",
            "0x000000000000000000000000ca14007eff0db1f8135f4c25b34de49ab0d42766",
            "0x07c688a3f0ca14aff5af96065787cd857af50c0dc55f2b19d0b464190cf4abee"
          ],
          "data": "0x000000000000000000000000000000000000000000000000000000000007a12000000000000000000000000000000000000000000000000000000000000000800000000000000000000000000000000000000000000000000000000000002746000000000000000000000000000000000000000000000000002386f26fc1000000000000000000000000000000000000000000000000000000000000000000090000000000000000000000000000000000000000000000000000000000000000000000000000000000000000ca14007eff0db1f8135f4c25b34de49ab0d42766000000000000000000000000ddb342ecc94236c29a5307d3757d0724d759453c000000000000000000000000ca14007eff0db1f8135f4c25b34de49ab0d42766000000000000000000000000000000000000000000000000002386f26fc1000000000000000000000000000000000000000000000000000000000000672a141000000000000000000000000000000000000000000000000000000000672a1450000000000000000000000000000000000000000000000000000000000007a12007c688a3f0ca14aff5af96065787cd857af50c0dc55f2b19d0b464190cf4abee",
          "blockHash": "0x1957467dfb7ea5493f6d26566b3d95c2fc0409358a89b60dba63031aa05e97c9",
          "blockNumber": "0x6b11ed",
          "transactionHash": "0xb7704a7f8457491485e9baa07dae8c7fbb063ccfc6de6a9f476a423c53faaa23",
          "transactionIndex": "0xf",
          "logIndex": "0x2e",
          "removed": false
        },
        {
          "address": "0xc64c3878f6DAec5b8B24E70af3D09B35AAb2Bc18",
          "topics": [
            "0xaf43445f7721522b7a3864ed3de53d7e2e658bfa1eeffa18e1e229be68ce2545",
            "0x000000000000000000000000ddb342ecc94236c29a5307d3757d0724d759453c",
            "0x07c688a3f0ca14aff5af96065787cd857af50c0dc55f2b19d0b464190cf4abee"
          ],
          "data": "0x000000000000000000000000000000000000000000000000000000000007a1200000000000000000000000000000000000000000000000000000000000000001",
          "blockHash": "0x1957467dfb7ea5493f6d26566b3d95c2fc0409358a89b60dba63031aa05e97c9",
          "blockNumber": "0x6b11ed",
          "transactionHash": "0xb7704a7f8457491485e9baa07dae8c7fbb063ccfc6de6a9f476a423c53faaa23",
          "transactionIndex": "0xf",
          "logIndex": "0x2f",
          "removed": false
        }
      ],
      "status": "0x1",
      "logsBloom": "0x0000020000000000000000000002000000000000000000000000004000000000000000000000000000000000000000000000000000004402000002000020000000000000000000000000000808000000000000000000004000100000000000060000100010000000000000000000000040000000000000000000001040000800a020000000000000000000820000000040008000000200000000000000000010020000800000000000001020000000021000000000000000000000000000000000800002000000024010000000000000000000200000000000800000000000000010000000010000000000020004000000000000001000000008000000000000",
      "type": "0x2",
      "effectiveGasPrice": "0x2c5119e5b"
    }
  ],
  "libraries": [],
  "pending": [],
  "returns": {},
  "timestamp": 1730810947,
  "chain": 11155111,
  "multi": false,
  "commit": "fc4ed57"
}