{
  "transactions": [
    {
      "hash": "0xdb3156227b32a068ca68cd96e3508914b5cf7acd5a5cdc79d4950641a6f7b3a6",
      "transactionType": "CALL",
      "contractName": "StarkNetToken",
      "contractAddress": "0xCa14007Eff0dB1f8135f4C25B34De49AB0d42766",
      "function": "approve(address,uint256)",
      "arguments": [
        "0xcE5485Cfb26914C5dcE00B9BAF0580364daFC7a4",
        "500000"
      ],
      "transaction": {
        "type": "0x02",
        "from": "0xddb342ecc94236c29a5307d3757d0724d759453c",
        "to": "0xca14007eff0db1f8135f4c25b34de49ab0d42766",
        "gas": "0x91c8",
        "value": "0x0",
        "data": "0x095ea7b3000000000000000000000000ce5485cfb26914c5dce00b9baf0580364dafc7a4000000000000000000000000000000000000000000000000000000000007a120",
        "nonce": "0x16a",
        "accessList": []
      },
      "additionalContracts": [],
      "isFixedGasLimit": false
    },
    {
      "hash": "0x92e2b686fd728584e34a4950d0794faf6c6aa991f83c9f62da11335b7261cd92",
      "transactionType": "CALL",
      "contractName": "Proxy",
      "contractAddress": "0xcE5485Cfb26914C5dcE00B9BAF0580364daFC7a4",
      "function": "depositWithMessage(address,uint256,uint256,uint256[])",
      "arguments": [
        "0xCa14007Eff0dB1f8135f4C25B34De49AB0d42766",
        "500000",
        "1688790644293257248594346693575694179189087689031518234438045115982820653038",
        "[1153662193824988676821566247033479441673014749030, 1265684623727634235329190328445374361672779121980, 1688790644293257248594346693575694179189087689031518234438045115982820653038, 500000, 0]"
      ],
      "transaction": {
        "type": "0x02",
        "from": "0xddb342ecc94236c29a5307d3757d0724d759453c",
        "to": "0xce5485cfb26914c5dce00b9baf0580364dafc7a4",
        "gas": "0x2c50c",
        "value": "0x2386f26fc10000",
        "data": "0xbe58b18e000000000000000000000000ca14007eff0db1f8135f4c25b34de49ab0d42766000000000000000000000000000000000000000000000000000000000007a12003bbd256734abe14157da0af3a16436d046e1bf2b77bb97567b88d5d530fb7ee00000000000000000000000000000000000000000000000000000000000000800000000000000000000000000000000000000000000000000000000000000005000000000000000000000000ca14007eff0db1f8135f4c25b34de49ab0d42766000000000000000000000000ddb342ecc94236c29a5307d3757d0724d759453c03bbd256734abe14157da0af3a16436d046e1bf2b77bb97567b88d5d530fb7ee000000000000000000000000000000000000000000000000000000000007a1200000000000000000000000000000000000000000000000000000000000000000",
        "nonce": "0x16b",
        "accessList": []
      },
      "additionalContracts": [],
      "isFixedGasLimit": false
    }
  ],
  "receipts": [],
  "libraries": [],
  "pending": [
    "0xdb3156227b32a068ca68cd96e3508914b5cf7acd5a5cdc79d4950641a6f7b3a6",
    "0x92e2b686fd728584e34a4950d0794faf6c6aa991f83c9f62da11335b7261cd92"
  ],
  "returns": {},
  "timestamp": 1730529757,
  "chain": 11155111,
  "multi": false,
  "commit": "5c94acc"
}