{
  "transactions": [
    {
      "hash": "0xb1bc8e576637a4d1fc3339cc45e3ca2bbd1937c94831e60b34556252d0ed5c57",
      "transactionType": "CALL",
      "contractName": "StarkNetToken",
      "contractAddress": "0xCa14007Eff0dB1f8135f4C25B34De49AB0d42766",
      "function": "approve(address,uint256)",
      "arguments": [
        "0xE17191757CfADAE1Fc94A0d191d52aDa5A10eD0c",
        "500000"
      ],
      "transaction": {
        "type": "0x02",
        "from": "0xddb342ecc94236c29a5307d3757d0724d759453c",
        "to": "0xca14007eff0db1f8135f4c25b34de49ab0d42766",
        "gas": "0xfd27",
        "value": "0x0",
        "data": "0x095ea7b3000000000000000000000000e17191757cfadae1fc94a0d191d52ada5a10ed0c000000000000000000000000000000000000000000000000000000000007a120",
        "nonce": "0x17f",
        "accessList": []
      },
      "additionalContracts": [],
      "isFixedGasLimit": false
    },
    {
      "hash": "0x96e6ef2fca5599e77936e2029ef3581d449da890137e3b687a0e2d33c821dd3f",
      "transactionType": "CALL",
      "contractName": null,
      "contractAddress": "0xE17191757CfADAE1Fc94A0d191d52aDa5A10eD0c",
      "function": "depositAndCreateOrder(uint256,uint256,uint128,uint128,address,address,uint128)",
      "arguments": [
        "500000",
        "1688790644293257248594346693575694179189087689031518234438045115982820653038",
        "1730569360",
        "1730569424",
        "0xCa14007Eff0dB1f8135f4C25B34De49AB0d42766",
        "0xCa14007Eff0dB1f8135f4C25B34De49AB0d42766",
        "10000000000000000"
      ],
      "transaction": {
        "type": "0x02",
        "from": "0xddb342ecc94236c29a5307d3757d0724d759453c",
        "to": "0xe17191757cfadae1fc94a0d191d52ada5a10ed0c",
        "gas": "0x362b5",
        "value": "0x2386f26fc10000",
        "data": "0x76d2d72e000000000000000000000000000000000000000000000000000000000007a12003bbd256734abe14157da0af3a16436d046e1bf2b77bb97567b88d5d530fb7ee000000000000000000000000000000000000000000000000000000006726649000000000000000000000000000000000000000000000000000000000672664d0000000000000000000000000ca14007eff0db1f8135f4c25b34de49ab0d42766000000000000000000000000ca14007eff0db1f8135f4c25b34de49ab0d42766000000000000000000000000000000000000000000000000002386f26fc10000",
        "nonce": "0x180",
        "accessList": []
      },
      "additionalContracts": [],
      "isFixedGasLimit": false
    }
  ],
  "receipts": [],
  "libraries": [],
  "pending": [
    "0xb1bc8e576637a4d1fc3339cc45e3ca2bbd1937c94831e60b34556252d0ed5c57",
    "0x96e6ef2fca5599e77936e2029ef3581d449da890137e3b687a0e2d33c821dd3f"
  ],
  "returns": {},
  "timestamp": 1730569422,
  "chain": 11155111,
  "multi": false,
  "commit": "8c1a6b6"
}