{
  "transactions": [
    {
      "hash": "0x6a63ab90a34a6508d52c5182a208bcf2e65899a932419c2469d6e9ac0f697e6f",
      "transactionType": "CALL",
      "contractName": "StarkNetToken",
      "contractAddress": "0xCa14007Eff0dB1f8135f4C25B34De49AB0d42766",
      "function": "approve(address,uint256)",
      "arguments": [
        "0x9Dea229712a7aAAa5034a1E496EECe05BA1997aE",
        "500000000000000000"
      ],
      "transaction": {
        "type": "0x02",
        "from": "0xddb342ecc94236c29a5307d3757d0724d759453c",
        "to": "0xca14007eff0db1f8135f4c25b34de49ab0d42766",
        "gas": "0xfd59",
        "value": "0x0",
        "data": "0x095ea7b30000000000000000000000009dea229712a7aaaa5034a1e496eece05ba1997ae00000000000000000000000000000000000000000000000006f05b59d3b20000",
        "nonce": "0x164",
        "accessList": []
      },
      "additionalContracts": [],
      "isFixedGasLimit": false
    },
    {
      "hash": null,
      "transactionType": "CALL",
      "contractName": "Proxy",
      "contractAddress": "0xE2Bb56ee936fd6433DC0F6e7e3b8365C906AA057",
      "function": "sendMessageToL2(uint256,uint256,uint256[])",
      "arguments": [
        "1688790644293257248594346693575694179189087689031518234438045115982820653038",
        "247015267890530308727663503380700973440961674638638362173641612402089762826",
        "[1153662193824988676821566247033479441673014749030, 1265684623727634235329190328445374361672779121980, 1688790644293257248594346693575694179189087689031518234438045115982820653038, 500000000000000000, 0]"
      ],
      "transaction": {
        "type": "0x02",
        "from": "0xddb342ecc94236c29a5307d3757d0724d759453c",
        "to": "0xe2bb56ee936fd6433dc0f6e7e3b8365c906aa057",
        "gas": "0x16b07",
        "value": "0x2386f26fc10000",
        "data": "0x3e3aa6c503bbd256734abe14157da0af3a16436d046e1bf2b77bb97567b88d5d530fb7ee008bce41827dd5484d80312a2e43bc42a896e3fcf75bf84c2b49339168dfa00a00000000000000000000000000000000000000000000000000000000000000600000000000000000000000000000000000000000000000000000000000000005000000000000000000000000ca14007eff0db1f8135f4c25b34de49ab0d42766000000000000000000000000ddb342ecc94236c29a5307d3757d0724d759453c03bbd256734abe14157da0af3a16436d046e1bf2b77bb97567b88d5d530fb7ee00000000000000000000000000000000000000000000000006f05b59d3b200000000000000000000000000000000000000000000000000000000000000000000",
        "nonce": "0x165",
        "accessList": []
      },
      "additionalContracts": [],
      "isFixedGasLimit": false
    }
  ],
  "receipts": [],
  "libraries": [],
  "pending": [
    "0x6a63ab90a34a6508d52c5182a208bcf2e65899a932419c2469d6e9ac0f697e6f"
  ],
  "returns": {},
  "timestamp": 1730490197,
  "chain": 11155111,
  "multi": false,
  "commit": "5c94acc"
}