{
  "transactions": [
    {
      "hash": "0xc8d8ba291311faa5af99424ea71d4bdea9566c17987d4ef1e7773466a3c41d1b",
      "transactionType": "CALL",
      "contractName": "StarkNetToken",
      "contractAddress": "0xCa14007Eff0dB1f8135f4C25B34De49AB0d42766",
      "function": "approve(address,uint256)",
      "arguments": [
        "0xcE5485Cfb26914C5dcE00B9BAF0580364daFC7a4",
        "500000"
      ],
      "transaction": {
        "type": "0x02",
        "from": "0xddb342ecc94236c29a5307d3757d0724d759453c",
        "to": "0xca14007eff0db1f8135f4c25b34de49ab0d42766",
        "gas": "0xfd27",
        "value": "0x0",
        "data": "0x095ea7b3000000000000000000000000ce5485cfb26914c5dce00b9baf0580364dafc7a4000000000000000000000000000000000000000000000000000000000007a120",
        "nonce": "0x16d",
        "accessList": []
      },
      "additionalContracts": [],
      "isFixedGasLimit": false
    }
  ],
  "receipts": [
    {
      "transactionHash": "0xc8d8ba291311faa5af99424ea71d4bdea9566c17987d4ef1e7773466a3c41d1b",
      "transactionIndex": "0x2",
      "blockHash": "0x28d9dde1d2246b43bd09e2d078b348f6e13a78b99cd2ae5480513fcbc0eb49db",
      "blockNumber": "0x6ac429",
      "from": "0xDdb342ecc94236c29a5307d3757d0724D759453C",
      "to": "0xCa14007Eff0dB1f8135f4C25B34De49AB0d42766",
      "cumulativeGasUsed": "0x2b5c2",
      "gasUsed": "0xb748",
      "contractAddress": null,
      "logs": [
        {
          "address": "0xCa14007Eff0dB1f8135f4C25B34De49AB0d42766",
          "topics": [
            "0x8c5be1e5ebec7d5bd14f71427d1e84f3dd0314c0f7b2291e5b200ac8c7c3b925",
            "0x000000000000000000000000ddb342ecc94236c29a5307d3757d0724d759453c",
            "0x000000000000000000000000ce5485cfb26914c5dce00b9baf0580364dafc7a4"
          ],
          "data": "0x000000000000000000000000000000000000000000000000000000000007a120",
          "blockHash": "0x28d9dde1d2246b43bd09e2d078b348f6e13a78b99cd2ae5480513fcbc0eb49db",
          "blockNumber": "0x6ac429",
          "transactionHash": "0xc8d8ba291311faa5af99424ea71d4bdea9566c17987d4ef1e7773466a3c41d1b",
          "transactionIndex": "0x2",
          "logIndex": "0x1",
          "removed": false
        }
      ],
      "status": "0x1",
      "logsBloom": "0x00000000000000000000000000000000000000000000000000000000000000000000000000000000000000000000000000000000000000000000000000200000000000000000000000000000000000000000000000000000000000000000000400000000000000000000000000000000400000000000000000000000400008000000000000000000000000000000000000000000000000000000000000000000020000000000000000000000000000001000000000000000000000000000000000000000000000020010000000000000000000000000000000800000000000000010000000000000000000000000000000000000001000000000000000000000",
      "type": "0x2",
      "effectiveGasPrice": "0x1dcd2bde0"
    }
  ],
  "libraries": [],
  "pending": [],
  "returns": {},
  "timestamp": 1730551670,
  "chain": 11155111,
  "multi": false,
  "commit": "5c94acc"
}