{
  "transactions": [
    {
      "hash": "0xcd0a1b19246a6e2df62b0bf90590eb0d805517dc815aa6c899ab6bff824c0b66",
      "transactionType": "CALL",
      "contractName": "StarkNetToken",
      "contractAddress": "0xCa14007Eff0dB1f8135f4C25B34De49AB0d42766",
      "function": "approve(address,uint256)",
      "arguments": [
        "0xA4663EC59AC63015C4F78d939beD8C2CA1dfd872",
        "500000"
      ],
      "transaction": {
        "type": "0x02",
        "from": "0xddb342ecc94236c29a5307d3757d0724d759453c",
        "to": "0xca14007eff0db1f8135f4c25b34de49ab0d42766",
        "gas": "0xfd27",
        "value": "0x0",
        "data": "0x095ea7b3000000000000000000000000a4663ec59ac63015c4f78d939bed8c2ca1dfd872000000000000000000000000000000000000000000000000000000000007a120",
        "nonce": "0x197",
        "accessList": []
      },
      "additionalContracts": [],
      "isFixedGasLimit": false
    },
    {
      "hash": "0xeda508882a58f9d7f304277075e569cb0e68f2fbb4f96790df60e4663f63e1dd",
      "transactionType": "CALL",
      "contractName": "StarkNetToken",
      "contractAddress": "0xCa14007Eff0dB1f8135f4C25B34De49AB0d42766",
      "function": "approve(address,uint256)",
      "arguments": [
        "0xcE5485Cfb26914C5dcE00B9BAF0580364daFC7a4",
        "500000"
      ],
      "transaction": {
        "type": "0x02",
        "from": "0xddb342ecc94236c29a5307d3757d0724d759453c",
        "to": "0xca14007eff0db1f8135f4c25b34de49ab0d42766",
        "gas": "0xfd27",
        "value": "0x0",
        "data": "0x095ea7b3000000000000000000000000ce5485cfb26914c5dce00b9baf0580364dafc7a4000000000000000000000000000000000000000000000000000000000007a120",
        "nonce": "0x198",
        "accessList": []
      },
      "additionalContracts": [],
      "isFixedGasLimit": false
    },
    {
      "hash": "0x840141f21c7c633b56a7178e751b0b2bc010f6afcc431c39b2bf109557a7f1f7",
      "transactionType": "CALL",
      "contractName": null,
      "contractAddress": "0xA4663EC59AC63015C4F78d939beD8C2CA1dfd872",
      "function": "depositAndCreateOrder(uint128,uint256,uint128,uint128,address,address,uint128)",
      "arguments": [
        "500000",
        "3242647895521508279875758215779626809649398168222467081246810722815990222726",
        "1730818176",
        "1730818240",
        "0xCa14007Eff0dB1f8135f4C25B34De49AB0d42766",
        "0xCa14007Eff0dB1f8135f4C25B34De49AB0d42766",
        "10000000000000000"
      ],
      "transaction": {
        "type": "0x02",
        "from": "0xddb342ecc94236c29a5307d3757d0724d759453c",
        "to": "0xa4663ec59ac63015c4f78d939bed8c2ca1dfd872",
        "gas": "0x3e8a1",
        "value": "0x2386f26fc10000",
        "data": "0x5f7e7946000000000000000000000000000000000000000000000000000000000007a120072b460f2f91e686749739fc5feb9310ed4082c809c0d34942ce87fd401ecf8600000000000000000000000000000000000000000000000000000000672a308000000000000000000000000000000000000000000000000000000000672a30c0000000000000000000000000ca14007eff0db1f8135f4c25b34de49ab0d42766000000000000000000000000ca14007eff0db1f8135f4c25b34de49ab0d42766000000000000000000000000000000000000000000000000002386f26fc10000",
        "nonce": "0x199",
        "accessList": []
      },
      "additionalContracts": [],
      "isFixedGasLimit": false
    }
  ],
  "receipts": [
    {
      "transactionHash": "0xcd0a1b19246a6e2df62b0bf90590eb0d805517dc815aa6c899ab6bff824c0b66",
      "transactionIndex": "0x5",
      "blockHash": "0xa7b80e291f37cfe988ba34c96c6fa6134542e422ce3a4a329a27954e72e90f48",
      "blockNumber": "0x6b1428",
      "from": "0xDdb342ecc94236c29a5307d3757d0724D759453C",
      "to": "0xCa14007Eff0dB1f8135f4C25B34De49AB0d42766",
      "cumulativeGasUsed": "0x31b83",
      "gasUsed": "0xb748",
      "contractAddress": null,
      "logs": [
        {
          "address": "0xCa14007Eff0dB1f8135f4C25B34De49AB0d42766",
          "topics": [
            "0x8c5be1e5ebec7d5bd14f71427d1e84f3dd0314c0f7b2291e5b200ac8c7c3b925",
            "0x000000000000000000000000ddb342ecc94236c29a5307d3757d0724d759453c",
            "0x000000000000000000000000a4663ec59ac63015c4f78d939bed8c2ca1dfd872"
          ],
          "data": "0x000000000000000000000000000000000000000000000000000000000007a120",
          "blockHash": "0xa7b80e291f37cfe988ba34c96c6fa6134542e422ce3a4a329a27954e72e90f48",
          "blockNumber": "0x6b1428",
          "transactionHash": "0xcd0a1b19246a6e2df62b0bf90590eb0d805517dc815aa6c899ab6bff824c0b66",
          "transactionIndex": "0x5",
          "logIndex": "0x2",
          "removed": false
        }
      ],
      "status": "0x1",
      "logsBloom": "0x00000000000000000000000000000000000000000000000000000000000000000000000000000000000000000000000000000000000000000000000000200000000010000000000000000000000000000000000000000000000000000000000400000000000000000000000000000000400000000000000000000000400000000000000000000000000000000000000000000000000000000000000000000000020000000000000000000000000000000000000000000000000000000000000000000000000000020000000000000000000000000000000000800000000000020010000000000000000000000000000000000000001000000800000000000000",
      "type": "0x2",
      "effectiveGasPrice": "0x3254f925e"
    },
    {
      "transactionHash": "0xeda508882a58f9d7f304277075e569cb0e68f2fbb4f96790df60e4663f63e1dd",
      "transactionIndex": "0x6",
      "blockHash": "0xa7b80e291f37cfe988ba34c96c6fa6134542e422ce3a4a329a27954e72e90f48",
      "blockNumber": "0x6b1428",
      "from": "0xDdb342ecc94236c29a5307d3757d0724D759453C",
      "to": "0xCa14007Eff0dB1f8135f4C25B34De49AB0d42766",
      "cumulativeGasUsed": "0x3d2cb",
      "gasUsed": "0xb748",
      "contractAddress": null,
      "logs": [
        {
          "address": "0xCa14007Eff0dB1f8135f4C25B34De49AB0d42766",
          "topics": [
            "0x8c5be1e5ebec7d5bd14f71427d1e84f3dd0314c0f7b2291e5b200ac8c7c3b925",
            "0x000000000000000000000000ddb342ecc94236c29a5307d3757d0724d759453c",
            "0x000000000000000000000000ce5485cfb26914c5dce00b9baf0580364dafc7a4"
          ],
          "data": "0x000000000000000000000000000000000000000000000000000000000007a120",
          "blockHash": "0xa7b80e291f37cfe988ba34c96c6fa6134542e422ce3a4a329a27954e72e90f48",
          "blockNumber": "0x6b1428",
          "transactionHash": "0xeda508882a58f9d7f304277075e569cb0e68f2fbb4f96790df60e4663f63e1dd",
          "transactionIndex": "0x6",
          "logIndex": "0x3",
          "removed": false
        }
      ],
      "status": "0x1",
      "logsBloom": "0x00000000000000000000000000000000000000000000000000000000000000000000000000000000000000000000000000000000000000000000000000200000000000000000000000000000000000000000000000000000000000000000000400000000000000000000000000000000400000000000000000000000400008000000000000000000000000000000000000000000000000000000000000000000020000000000000000000000000000001000000000000000000000000000000000000000000000020010000000000000000000000000000000800000000000000010000000000000000000000000000000000000001000000000000000000000",
      "type": "0x2",
      "effectiveGasPrice": "0x3254f925e"
    },
    {
      "transactionHash": "0x840141f21c7c633b56a7178e751b0b2bc010f6afcc431c39b2bf109557a7f1f7",
      "transactionIndex": "0x7",
      "blockHash": "0xa7b80e291f37cfe988ba34c96c6fa6134542e422ce3a4a329a27954e72e90f48",
      "blockNumber": "0x6b1428",
      "from": "0xDdb342ecc94236c29a5307d3757d0724D759453C",
      "to": "0xA4663EC59AC63015C4F78d939beD8C2CA1dfd872",
      "cumulativeGasUsed": "0x67b5a",
      "gasUsed": "0x2a88f",
      "contractAddress": null,
      "logs": [
        {
          "address": "0xCa14007Eff0dB1f8135f4C25B34De49AB0d42766",
          "topics": [
            "0x8c5be1e5ebec7d5bd14f71427d1e84f3dd0314c0f7b2291e5b200ac8c7c3b925",
            "0x000000000000000000000000ddb342ecc94236c29a5307d3757d0724d759453c",
            "0x000000000000000000000000a4663ec59ac63015c4f78d939bed8c2ca1dfd872"
          ],
          "data": "0x0000000000000000000000000000000000000000000000000000000000000000",
          "blockHash": "0xa7b80e291f37cfe988ba34c96c6fa6134542e422ce3a4a329a27954e72e90f48",
          "blockNumber": "0x6b1428",
          "transactionHash": "0x840141f21c7c633b56a7178e751b0b2bc010f6afcc431c39b2bf109557a7f1f7",
          "transactionIndex": "0x7",
          "logIndex": "0x4",
          "removed": false
        },
        {
          "address": "0xCa14007Eff0dB1f8135f4C25B34De49AB0d42766",
          "topics": [
            "0xddf252ad1be2c89b69c2b068fc378daa952ba7f163c4a11628f55a4df523b3ef",
            "0x000000000000000000000000ddb342ecc94236c29a5307d3757d0724d759453c",
            "0x000000000000000000000000a4663ec59ac63015c4f78d939bed8c2ca1dfd872"
          ],
          "data": "0x000000000000000000000000000000000000000000000000000000000007a120",
          "blockHash": "0xa7b80e291f37cfe988ba34c96c6fa6134542e422ce3a4a329a27954e72e90f48",
          "blockNumber": "0x6b1428",
          "transactionHash": "0x840141f21c7c633b56a7178e751b0b2bc010f6afcc431c39b2bf109557a7f1f7",
          "transactionIndex": "0x7",
          "logIndex": "0x5",
          "removed": false
        },
        {
          "address": "0xCa14007Eff0dB1f8135f4C25B34De49AB0d42766",
          "topics": [
            "0x8c5be1e5ebec7d5bd14f71427d1e84f3dd0314c0f7b2291e5b200ac8c7c3b925",
            "0x000000000000000000000000a4663ec59ac63015c4f78d939bed8c2ca1dfd872",
            "0x000000000000000000000000ce5485cfb26914c5dce00b9baf0580364dafc7a4"
          ],
          "data": "0x0000000000000000000000000000000000000000000000000000000000000000",
          "blockHash": "0xa7b80e291f37cfe988ba34c96c6fa6134542e422ce3a4a329a27954e72e90f48",
          "blockNumber": "0x6b1428",
          "transactionHash": "0x840141f21c7c633b56a7178e751b0b2bc010f6afcc431c39b2bf109557a7f1f7",
          "transactionIndex": "0x7",
          "logIndex": "0x6",
          "removed": false
        },
        {
          "address": "0xCa14007Eff0dB1f8135f4C25B34De49AB0d42766",
          "topics": [
            "0x8c5be1e5ebec7d5bd14f71427d1e84f3dd0314c0f7b2291e5b200ac8c7c3b925",
            "0x000000000000000000000000a4663ec59ac63015c4f78d939bed8c2ca1dfd872",
            "0x000000000000000000000000ce5485cfb26914c5dce00b9baf0580364dafc7a4"
          ],
          "data": "0x000000000000000000000000000000000000000000000000000000000007a120",
          "blockHash": "0xa7b80e291f37cfe988ba34c96c6fa6134542e422ce3a4a329a27954e72e90f48",
          "blockNumber": "0x6b1428",
          "transactionHash": "0x840141f21c7c633b56a7178e751b0b2bc010f6afcc431c39b2bf109557a7f1f7",
          "transactionIndex": "0x7",
          "logIndex": "0x7",
          "removed": false
        },
        {
          "address": "0xCa14007Eff0dB1f8135f4C25B34De49AB0d42766",
          "topics": [
            "0x8c5be1e5ebec7d5bd14f71427d1e84f3dd0314c0f7b2291e5b200ac8c7c3b925",
            "0x000000000000000000000000a4663ec59ac63015c4f78d939bed8c2ca1dfd872",
            "0x000000000000000000000000ce5485cfb26914c5dce00b9baf0580364dafc7a4"
          ],
          "data": "0x0000000000000000000000000000000000000000000000000000000000000000",
          "blockHash": "0xa7b80e291f37cfe988ba34c96c6fa6134542e422ce3a4a329a27954e72e90f48",
          "blockNumber": "0x6b1428",
          "transactionHash": "0x840141f21c7c633b56a7178e751b0b2bc010f6afcc431c39b2bf109557a7f1f7",
          "transactionIndex": "0x7",
          "logIndex": "0x8",
          "removed": false
        },
        {
          "address": "0xCa14007Eff0dB1f8135f4C25B34De49AB0d42766",
          "topics": [
            "0xddf252ad1be2c89b69c2b068fc378daa952ba7f163c4a11628f55a4df523b3ef",
            "0x000000000000000000000000a4663ec59ac63015c4f78d939bed8c2ca1dfd872",
            "0x000000000000000000000000ce5485cfb26914c5dce00b9baf0580364dafc7a4"
          ],
          "data": "0x000000000000000000000000000000000000000000000000000000000007a120",
          "blockHash": "0xa7b80e291f37cfe988ba34c96c6fa6134542e422ce3a4a329a27954e72e90f48",
          "blockNumber": "0x6b1428",
          "transactionHash": "0x840141f21c7c633b56a7178e751b0b2bc010f6afcc431c39b2bf109557a7f1f7",
          "transactionIndex": "0x7",
          "logIndex": "0x9",
          "removed": false
        },
        {
          "address": "0xE2Bb56ee936fd6433DC0F6e7e3b8365C906AA057",
          "topics": [
            "0xdb80dd488acf86d17c747445b0eabb5d57c541d3bd7b6b87af987858e5066b2b",
            "0x000000000000000000000000ce5485cfb26914c5dce00b9baf0580364dafc7a4",
            "0x0594c1582459ea03f77deaf9eb7e3917d6994a03c13405ba42867f83d85f085d",
            "0x008bce41827dd5484d80312a2e43bc42a896e3fcf75bf84c2b49339168dfa00a"
          ],
          "data": "0x00000000000000000000000000000000000000000000000000000000000000600000000000000000000000000000000000000000000000000000000000002749000000000000000000000000000000000000000000000000002386f26fc10000000000000000000000000000000000000000000000000000000000000000000f000000000000000000000000ca14007eff0db1f8135f4c25b34de49ab0d42766000000000000000000000000a4663ec59ac63015c4f78d939bed8c2ca1dfd872072b460f2f91e686749739fc5feb9310ed4082c809c0d34942ce87fd401ecf86000000000000000000000000000000000000000000000000000000000007a120000000000000000000000000000000000000000000000000000000000000000000000000000000000000000000000000000000000000000000000000000000090000000000000000000000000000000000000000000000000000000000000000000000000000000000000000ca14007eff0db1f8135f4c25b34de49ab0d42766000000000000000000000000ddb342ecc94236c29a5307d3757d0724d759453c000000000000000000000000ca14007eff0db1f8135f4c25b34de49ab0d42766000000000000000000000000000000000000000000000000002386f26fc1000000000000000000000000000000000000000000000000000000000000672a308000000000000000000000000000000000000000000000000000000000672a30c0000000000000000000000000000000000000000000000000000000000007a120072b460f2f91e686749739fc5feb9310ed4082c809c0d34942ce87fd401ecf86",
          "blockHash": "0xa7b80e291f37cfe988ba34c96c6fa6134542e422ce3a4a329a27954e72e90f48",
          "blockNumber": "0x6b1428",
          "transactionHash": "0x840141f21c7c633b56a7178e751b0b2bc010f6afcc431c39b2bf109557a7f1f7",
          "transactionIndex": "0x7",
          "logIndex": "0xa",
          "removed": false
        },
        {
          "address": "0xcE5485Cfb26914C5dcE00B9BAF0580364daFC7a4",
          "topics": [
            "0x2203a49c69f1a46c1164f5e4a30643dd77b7c59c0ff9bc433256048365c247f1",
            "0x000000000000000000000000a4663ec59ac63015c4f78d939bed8c2ca1dfd872",
            "0x000000000000000000000000ca14007eff0db1f8135f4c25b34de49ab0d42766",
            "0x072b460f2f91e686749739fc5feb9310ed4082c809c0d34942ce87fd401ecf86"
          ],
          "data": "0x000000000000000000000000000000000000000000000000000000000007a12000000000000000000000000000000000000000000000000000000000000000800000000000000000000000000000000000000000000000000000000000002749000000000000000000000000000000000000000000000000002386f26fc1000000000000000000000000000000000000000000000000000000000000000000090000000000000000000000000000000000000000000000000000000000000000000000000000000000000000ca14007eff0db1f8135f4c25b34de49ab0d42766000000000000000000000000ddb342ecc94236c29a5307d3757d0724d759453c000000000000000000000000ca14007eff0db1f8135f4c25b34de49ab0d42766000000000000000000000000000000000000000000000000002386f26fc1000000000000000000000000000000000000000000000000000000000000672a308000000000000000000000000000000000000000000000000000000000672a30c0000000000000000000000000000000000000000000000000000000000007a120072b460f2f91e686749739fc5feb9310ed4082c809c0d34942ce87fd401ecf86",
          "blockHash": "0xa7b80e291f37cfe988ba34c96c6fa6134542e422ce3a4a329a27954e72e90f48",
          "blockNumber": "0x6b1428",
          "transactionHash": "0x840141f21c7c633b56a7178e751b0b2bc010f6afcc431c39b2bf109557a7f1f7",
          "transactionIndex": "0x7",
          "logIndex": "0xb",
          "removed": false
        },
        {
          "address": "0xA4663EC59AC63015C4F78d939beD8C2CA1dfd872",
          "topics": [
            "0xaf43445f7721522b7a3864ed3de53d7e2e658bfa1eeffa18e1e229be68ce2545",
            "0x000000000000000000000000ddb342ecc94236c29a5307d3757d0724d759453c",
            "0x072b460f2f91e686749739fc5feb9310ed4082c809c0d34942ce87fd401ecf86"
          ],
          "data": "0x000000000000000000000000000000000000000000000000000000000007a1200000000000000000000000000000000000000000000000000000000000000001",
          "blockHash": "0xa7b80e291f37cfe988ba34c96c6fa6134542e422ce3a4a329a27954e72e90f48",
          "blockNumber": "0x6b1428",
          "transactionHash": "0x840141f21c7c633b56a7178e751b0b2bc010f6afcc431c39b2bf109557a7f1f7",
          "transactionIndex": "0x7",
          "logIndex": "0xc",
          "removed": false
        }
      ],
      "status": "0x1",
      "logsBloom": "0x00000200000000000000000000020000000000000000080000000040000000000000000800000004000000000000000000000000000004000000020000200000000010000000000000000008080000000000000000000040001000000000000620000000100000000000000000004000400000000000000000000010400008002000000000000000000000020000000000008000000200000000000000000010020000800000000000000020000000021040000000000000000000000000000000800002000000024010000000000000000000200000000000800000000000020010000000010000000000020004000000000000001000000800000000000000",
      "type": "0x2",
      "effectiveGasPrice": "0x3254f925e"
    }
  ],
  "libraries": [],
  "pending": [],
  "returns": {},
  "timestamp": 1730818241,
  "chain": 11155111,
  "multi": false,
  "commit": "011e5f4"
}