{
  "transactions": [
    {
      "hash": "0x8bdd1bb4a5c6a2d0ac8865f8c275cf1f67600e4fd119fbc3542cfc5d1230ce62",
      "transactionType": "CALL",
      "contractName": "StarkNetToken",
      "contractAddress": "0xCa14007Eff0dB1f8135f4C25B34De49AB0d42766",
      "function": "approve(address,uint256)",
      "arguments": [
        "0xE85ad4997e408Aa58B3FC8abE9Ec7Bc21f0B0FfE",
        "500000"
      ],
      "transaction": {
        "type": "0x02",
        "from": "0xddb342ecc94236c29a5307d3757d0724d759453c",
        "to": "0xca14007eff0db1f8135f4c25b34de49ab0d42766",
        "gas": "0xfd27",
        "value": "0x0",
        "data": "0x095ea7b3000000000000000000000000e85ad4997e408aa58b3fc8abe9ec7bc21f0b0ffe000000000000000000000000000000000000000000000000000000000007a120",
        "nonce": "0x18a",
        "accessList": []
      },
      "additionalContracts": [],
      "isFixedGasLimit": false
    },
    {
      "hash": "0x14de4ffedc470c903b7e960a6a2bd1e3119721f1a3ef0d3afc98a34d424d2ffe",
      "transactionType": "CALL",
      "contractName": null,
      "contractAddress": "0xE85ad4997e408Aa58B3FC8abE9Ec7Bc21f0B0FfE",
      "function": "depositAndCreateOrder(uint256,uint256,uint128,uint128,address,address,uint128)",
      "arguments": [
        "500000",
        "856362928645695670756227636174468840436965879505032907762968342308137260954",
        "1730739872",
        "1730739936",
        "0xCa14007Eff0dB1f8135f4C25B34De49AB0d42766",
        "0xCa14007Eff0dB1f8135f4C25B34De49AB0d42766",
        "10000000000000000"
      ],
      "transaction": {
        "type": "0x02",
        "from": "0xddb342ecc94236c29a5307d3757d0724d759453c",
        "to": "0xe85ad4997e408aa58b3fc8abe9ec7bc21f0b0ffe",
        "gas": "0x367ae",
        "value": "0x2386f26fc10000",
        "data": "0x76d2d72e000000000000000000000000000000000000000000000000000000000007a12001e4af2a6be9977dca8a2c46da65abb698fb09c20013b2f616bab21c6a08d79a000000000000000000000000000000000000000000000000000000006728fea0000000000000000000000000000000000000000000000000000000006728fee0000000000000000000000000ca14007eff0db1f8135f4c25b34de49ab0d42766000000000000000000000000ca14007eff0db1f8135f4c25b34de49ab0d42766000000000000000000000000000000000000000000000000002386f26fc10000",
        "nonce": "0x18b",
        "accessList": []
      },
      "additionalContracts": [],
      "isFixedGasLimit": false
    }
  ],
  "receipts": [
    {
      "transactionHash": "0x8bdd1bb4a5c6a2d0ac8865f8c275cf1f67600e4fd119fbc3542cfc5d1230ce62",
      "transactionIndex": "0x0",
      "blockHash": "0xb2c7b0042303289205a8ddff1daf8c3fd559149cf5c1924a69b1199664888255",
      "blockNumber": "0x6afc45",
      "from": "0xDdb342ecc94236c29a5307d3757d0724D759453C",
      "to": "0xCa14007Eff0dB1f8135f4C25B34De49AB0d42766",
      "cumulativeGasUsed": "0xb748",
      "gasUsed": "0xb748",
      "contractAddress": null,
      "logs": [
        {
          "address": "0xCa14007Eff0dB1f8135f4C25B34De49AB0d42766",
          "topics": [
            "0x8c5be1e5ebec7d5bd14f71427d1e84f3dd0314c0f7b2291e5b200ac8c7c3b925",
            "0x000000000000000000000000ddb342ecc94236c29a5307d3757d0724d759453c",
            "0x000000000000000000000000e85ad4997e408aa58b3fc8abe9ec7bc21f0b0ffe"
          ],
          "data": "0x000000000000000000000000000000000000000000000000000000000007a120",
          "blockHash": "0xb2c7b0042303289205a8ddff1daf8c3fd559149cf5c1924a69b1199664888255",
          "blockNumber": "0x6afc45",
          "transactionHash": "0x8bdd1bb4a5c6a2d0ac8865f8c275cf1f67600e4fd119fbc3542cfc5d1230ce62",
          "transactionIndex": "0x0",
          "logIndex": "0x0",
          "removed": false
        }
      ],
      "status": "0x1",
      "logsBloom": "0x00000000000000000000000000000000000000000000000000000000000000000000000000000000000000000000000000000000000000000000000000200000000000000000000000000000000000000000000000000000000000000000000400000000000000010000000000000000400000000000000000000000400000000000000000000000000000000000000000000000000000000000000000000000020000000000000000000000000000000000000000000000000000000000000000000000000000020000000000000100000000000000000000800000000000000010000000000000000000000000000000000000001000000000000000000000",
      "type": "0x2",
      "effectiveGasPrice": "0x1fdc3b5a5"
    },
    {
      "transactionHash": "0x14de4ffedc470c903b7e960a6a2bd1e3119721f1a3ef0d3afc98a34d424d2ffe",
      "transactionIndex": "0x1",
      "blockHash": "0xb2c7b0042303289205a8ddff1daf8c3fd559149cf5c1924a69b1199664888255",
      "blockNumber": "0x6afc45",
      "from": "0xDdb342ecc94236c29a5307d3757d0724D759453C",
      "to": "0xE85ad4997e408Aa58B3FC8abE9Ec7Bc21f0B0FfE",
      "cumulativeGasUsed": "0x32abb",
      "gasUsed": "0x27373",
      "contractAddress": null,
      "logs": [
        {
          "address": "0xCa14007Eff0dB1f8135f4C25B34De49AB0d42766",
          "topics": [
            "0x8c5be1e5ebec7d5bd14f71427d1e84f3dd0314c0f7b2291e5b200ac8c7c3b925",
            "0x000000000000000000000000e85ad4997e408aa58b3fc8abe9ec7bc21f0b0ffe",
            "0x000000000000000000000000ce5485cfb26914c5dce00b9baf0580364dafc7a4"
          ],
          "data": "0x000000000000000000000000000000000000000000000000000000000007a120",
          "blockHash": "0xb2c7b0042303289205a8ddff1daf8c3fd559149cf5c1924a69b1199664888255",
          "blockNumber": "0x6afc45",
          "transactionHash": "0x14de4ffedc470c903b7e960a6a2bd1e3119721f1a3ef0d3afc98a34d424d2ffe",
          "transactionIndex": "0x1",
          "logIndex": "0x1",
          "removed": false
        },
        {
          "address": "0xCa14007Eff0dB1f8135f4C25B34De49AB0d42766",
          "topics": [
            "0x8c5be1e5ebec7d5bd14f71427d1e84f3dd0314c0f7b2291e5b200ac8c7c3b925",
            "0x000000000000000000000000ddb342ecc94236c29a5307d3757d0724d759453c",
            "0x000000000000000000000000e85ad4997e408aa58b3fc8abe9ec7bc21f0b0ffe"
          ],
          "data": "0x0000000000000000000000000000000000000000000000000000000000000000",
          "blockHash": "0xb2c7b0042303289205a8ddff1daf8c3fd559149cf5c1924a69b1199664888255",
          "blockNumber": "0x6afc45",
          "transactionHash": "0x14de4ffedc470c903b7e960a6a2bd1e3119721f1a3ef0d3afc98a34d424d2ffe",
          "transactionIndex": "0x1",
          "logIndex": "0x2",
          "removed": false
        },
        {
          "address": "0xCa14007Eff0dB1f8135f4C25B34De49AB0d42766",
          "topics": [
            "0xddf252ad1be2c89b69c2b068fc378daa952ba7f163c4a11628f55a4df523b3ef",
            "0x000000000000000000000000ddb342ecc94236c29a5307d3757d0724d759453c",
            "0x000000000000000000000000e85ad4997e408aa58b3fc8abe9ec7bc21f0b0ffe"
          ],
          "data": "0x000000000000000000000000000000000000000000000000000000000007a120",
          "blockHash": "0xb2c7b0042303289205a8ddff1daf8c3fd559149cf5c1924a69b1199664888255",
          "blockNumber": "0x6afc45",
          "transactionHash": "0x14de4ffedc470c903b7e960a6a2bd1e3119721f1a3ef0d3afc98a34d424d2ffe",
          "transactionIndex": "0x1",
          "logIndex": "0x3",
          "removed": false
        },
        {
          "address": "0xCa14007Eff0dB1f8135f4C25B34De49AB0d42766",
          "topics": [
            "0x8c5be1e5ebec7d5bd14f71427d1e84f3dd0314c0f7b2291e5b200ac8c7c3b925",
            "0x000000000000000000000000e85ad4997e408aa58b3fc8abe9ec7bc21f0b0ffe",
            "0x000000000000000000000000ce5485cfb26914c5dce00b9baf0580364dafc7a4"
          ],
          "data": "0x0000000000000000000000000000000000000000000000000000000000000000",
          "blockHash": "0xb2c7b0042303289205a8ddff1daf8c3fd559149cf5c1924a69b1199664888255",
          "blockNumber": "0x6afc45",
          "transactionHash": "0x14de4ffedc470c903b7e960a6a2bd1e3119721f1a3ef0d3afc98a34d424d2ffe",
          "transactionIndex": "0x1",
          "logIndex": "0x4",
          "removed": false
        },
        {
          "address": "0xCa14007Eff0dB1f8135f4C25B34De49AB0d42766",
          "topics": [
            "0xddf252ad1be2c89b69c2b068fc378daa952ba7f163c4a11628f55a4df523b3ef",
            "0x000000000000000000000000e85ad4997e408aa58b3fc8abe9ec7bc21f0b0ffe",
            "0x000000000000000000000000ce5485cfb26914c5dce00b9baf0580364dafc7a4"
          ],
          "data": "0x000000000000000000000000000000000000000000000000000000000007a120",
          "blockHash": "0xb2c7b0042303289205a8ddff1daf8c3fd559149cf5c1924a69b1199664888255",
          "blockNumber": "0x6afc45",
          "transactionHash": "0x14de4ffedc470c903b7e960a6a2bd1e3119721f1a3ef0d3afc98a34d424d2ffe",
          "transactionIndex": "0x1",
          "logIndex": "0x5",
          "removed": false
        },
        {
          "address": "0xE2Bb56ee936fd6433DC0F6e7e3b8365C906AA057",
          "topics": [
            "0xdb80dd488acf86d17c747445b0eabb5d57c541d3bd7b6b87af987858e5066b2b",
            "0x000000000000000000000000ce5485cfb26914c5dce00b9baf0580364dafc7a4",
            "0x0594c1582459ea03f77deaf9eb7e3917d6994a03c13405ba42867f83d85f085d",
            "0x008bce41827dd5484d80312a2e43bc42a896e3fcf75bf84c2b49339168dfa00a"
          ],
          "data": "0x00000000000000000000000000000000000000000000000000000000000000600000000000000000000000000000000000000000000000000000000000002734000000000000000000000000000000000000000000000000002386f26fc100000000000000000000000000000000000000000000000000000000000000000006000000000000000000000000ca14007eff0db1f8135f4c25b34de49ab0d42766000000000000000000000000e85ad4997e408aa58b3fc8abe9ec7bc21f0b0ffe01e4af2a6be9977dca8a2c46da65abb698fb09c20013b2f616bab21c6a08d79a000000000000000000000000000000000000000000000000000000000007a12000000000000000000000000000000000000000000000000000000000000000000000000000000000000000000000000000000000000000000000000000000000",
          "blockHash": "0xb2c7b0042303289205a8ddff1daf8c3fd559149cf5c1924a69b1199664888255",
          "blockNumber": "0x6afc45",
          "transactionHash": "0x14de4ffedc470c903b7e960a6a2bd1e3119721f1a3ef0d3afc98a34d424d2ffe",
          "transactionIndex": "0x1",
          "logIndex": "0x6",
          "removed": false
        },
        {
          "address": "0xcE5485Cfb26914C5dcE00B9BAF0580364daFC7a4",
          "topics": [
            "0x2203a49c69f1a46c1164f5e4a30643dd77b7c59c0ff9bc433256048365c247f1",
            "0x000000000000000000000000e85ad4997e408aa58b3fc8abe9ec7bc21f0b0ffe",
            "0x000000000000000000000000ca14007eff0db1f8135f4c25b34de49ab0d42766",
            "0x01e4af2a6be9977dca8a2c46da65abb698fb09c20013b2f616bab21c6a08d79a"
          ],
          "data": "0x000000000000000000000000000000000000000000000000000000000007a12000000000000000000000000000000000000000000000000000000000000000800000000000000000000000000000000000000000000000000000000000002734000000000000000000000000000000000000000000000000002386f26fc100000000000000000000000000000000000000000000000000000000000000000000",
          "blockHash": "0xb2c7b0042303289205a8ddff1daf8c3fd559149cf5c1924a69b1199664888255",
          "blockNumber": "0x6afc45",
          "transactionHash": "0x14de4ffedc470c903b7e960a6a2bd1e3119721f1a3ef0d3afc98a34d424d2ffe",
          "transactionIndex": "0x1",
          "logIndex": "0x7",
          "removed": false
        },
        {
          "address": "0xE85ad4997e408Aa58B3FC8abE9Ec7Bc21f0B0FfE",
          "topics": [
            "0xaf43445f7721522b7a3864ed3de53d7e2e658bfa1eeffa18e1e229be68ce2545",
            "0x000000000000000000000000ddb342ecc94236c29a5307d3757d0724d759453c",
            "0x01e4af2a6be9977dca8a2c46da65abb698fb09c20013b2f616bab21c6a08d79a"
          ],
          "data": "0x000000000000000000000000000000000000000000000000000000000007a1200000000000000000000000000000000000000000000000000000000000000001",
          "blockHash": "0xb2c7b0042303289205a8ddff1daf8c3fd559149cf5c1924a69b1199664888255",
          "blockNumber": "0x6afc45",
          "transactionHash": "0x14de4ffedc470c903b7e960a6a2bd1e3119721f1a3ef0d3afc98a34d424d2ffe",
          "transactionIndex": "0x1",
          "logIndex": "0x8",
          "removed": false
        }
      ],
      "status": "0x1",
      "logsBloom": "0x00000200000000000000000000020000000000000000000000000040000000000000000000040000000000000000000000000000000004000000020000200000000000040000000000000008080000000000000000000040001000000000000640000000100000010000000000000000400000000000000000000010400008002000000000000000000000020000000000008000000200000000000000000010020000800000000000000020000000021000000000000000000000000000000000800002000000024010000000000100000040200000000000800000000000000010000000010002000000024004000000000000001000000000000000000000",
      "type": "0x2",
      "effectiveGasPrice": "0x1fdc3b5a5"
    }
  ],
  "libraries": [],
  "pending": [],
  "returns": {},
  "timestamp": 1730739931,
  "chain": 11155111,
  "multi": false,
  "commit": "8c1a6b6"
}