{
  "transactions": [
    {
      "hash": "0x078b290bb10feec8cb33c7f698619c8e08af323f41231e0ff3281ffd2e08d424",
      "transactionType": "CALL",
      "contractName": "StarkNetToken",
      "contractAddress": "0xCa14007Eff0dB1f8135f4C25B34De49AB0d42766",
      "function": "approve(address,uint256)",
      "arguments": [
        "0xC8b71173D78fF0Df2Fea073215d4a3a98a83b931",
        "500000"
      ],
      "transaction": {
        "type": "0x02",
        "from": "0xddb342ecc94236c29a5307d3757d0724d759453c",
        "to": "0xca14007eff0db1f8135f4c25b34de49ab0d42766",
        "gas": "0xfd27",
        "value": "0x0",
        "data": "0x095ea7b3000000000000000000000000c8b71173d78ff0df2fea073215d4a3a98a83b931000000000000000000000000000000000000000000000000000000000007a120",
        "nonce": "0x18f",
        "accessList": []
      },
      "additionalContracts": [],
      "isFixedGasLimit": false
    },
    {
      "hash": "0x0e9d18edb3aa5f55fd982c07a45489cf0ccbed8b8a4f79b499defb0735dc4917",
      "transactionType": "CALL",
      "contractName": null,
      "contractAddress": "0xC8b71173D78fF0Df2Fea073215d4a3a98a83b931",
      "function": "depositAndCreateOrder(uint128,uint256,uint128,uint128,address,address,uint128)",
      "arguments": [
        "500000",
        "3306053849109972465361986879877926578065092437448485981974860637365537164149",
        "1730799568",
        "1730799632",
        "0xCa14007Eff0dB1f8135f4C25B34De49AB0d42766",
        "0xCa14007Eff0dB1f8135f4C25B34De49AB0d42766",
        "10000000000000000"
      ],
      "transaction": {
        "type": "0x02",
        "from": "0xddb342ecc94236c29a5307d3757d0724d759453c",
        "to": "0xc8b71173d78ff0df2fea073215d4a3a98a83b931",
        "gas": "0x3b0fd",
        "value": "0x2386f26fc10000",
        "data": "0x5f7e7946000000000000000000000000000000000000000000000000000000000007a120074f2900b75a8b3c6df7c5790120d6c5c7f8e0333c428fbef045a93403dd4b75000000000000000000000000000000000000000000000000000000006729e7d0000000000000000000000000000000000000000000000000000000006729e810000000000000000000000000ca14007eff0db1f8135f4c25b34de49ab0d42766000000000000000000000000ca14007eff0db1f8135f4c25b34de49ab0d42766000000000000000000000000000000000000000000000000002386f26fc10000",
        "nonce": "0x190",
        "accessList": []
      },
      "additionalContracts": [],
      "isFixedGasLimit": false
    }
  ],
  "receipts": [
    {
      "transactionHash": "0x078b290bb10feec8cb33c7f698619c8e08af323f41231e0ff3281ffd2e08d424",
      "transactionIndex": "0x9",
      "blockHash": "0xd94454e02e257701493e5ccc27eb8fc7735b504af9024d6b6767e11d420dd0ed",
      "blockNumber": "0x6b0e7a",
      "from": "0xDdb342ecc94236c29a5307d3757d0724D759453C",
      "to": "0xCa14007Eff0dB1f8135f4C25B34De49AB0d42766",
      "cumulativeGasUsed": "0x1c40f8",
      "gasUsed": "0xb748",
      "contractAddress": null,
      "logs": [
        {
          "address": "0xCa14007Eff0dB1f8135f4C25B34De49AB0d42766",
          "topics": [
            "0x8c5be1e5ebec7d5bd14f71427d1e84f3dd0314c0f7b2291e5b200ac8c7c3b925",
            "0x000000000000000000000000ddb342ecc94236c29a5307d3757d0724d759453c",
            "0x000000000000000000000000c8b71173d78ff0df2fea073215d4a3a98a83b931"
          ],
          "data": "0x000000000000000000000000000000000000000000000000000000000007a120",
          "blockHash": "0xd94454e02e257701493e5ccc27eb8fc7735b504af9024d6b6767e11d420dd0ed",
          "blockNumber": "0x6b0e7a",
          "transactionHash": "0x078b290bb10feec8cb33c7f698619c8e08af323f41231e0ff3281ffd2e08d424",
          "transactionIndex": "0x9",
          "logIndex": "0x18",
          "removed": false
        }
      ],
      "status": "0x1",
      "logsBloom": "0x00000000000000000000000000200000000000000000000000000000000000000008000000000000000000000000000000000000000000000000000000200000000000000000000000000000000000000000000000000040000000000000000400000000000000000000000000000000400000000000000000000000400000000000000000000000000000000000000000000000000000000000000000000000020000000000000000000000000000000000000000000000000000000000000000000000000000020000000000000000000000000000000000800000000000000010000000000000000000000000000000000000001000000000000000000000",
      "type": "0x2",
      "effectiveGasPrice": "0x42dd2a2b7"
    },
    {
      "transactionHash": "0x0e9d18edb3aa5f55fd982c07a45489cf0ccbed8b8a4f79b499defb0735dc4917",
      "transactionIndex": "0xa",
      "blockHash": "0xd94454e02e257701493e5ccc27eb8fc7735b504af9024d6b6767e11d420dd0ed",
      "blockNumber": "0x6b0e7a",
      "from": "0xDdb342ecc94236c29a5307d3757d0724D759453C",
      "to": "0xC8b71173D78fF0Df2Fea073215d4a3a98a83b931",
      "cumulativeGasUsed": "0x1ee97d",
      "gasUsed": "0x2a885",
      "contractAddress": null,
      "logs": [
        {
          "address": "0xCa14007Eff0dB1f8135f4C25B34De49AB0d42766",
          "topics": [
            "0x8c5be1e5ebec7d5bd14f71427d1e84f3dd0314c0f7b2291e5b200ac8c7c3b925",
            "0x000000000000000000000000ddb342ecc94236c29a5307d3757d0724d759453c",
            "0x000000000000000000000000c8b71173d78ff0df2fea073215d4a3a98a83b931"
          ],
          "data": "0x0000000000000000000000000000000000000000000000000000000000000000",
          "blockHash": "0xd94454e02e257701493e5ccc27eb8fc7735b504af9024d6b6767e11d420dd0ed",
          "blockNumber": "0x6b0e7a",
          "transactionHash": "0x0e9d18edb3aa5f55fd982c07a45489cf0ccbed8b8a4f79b499defb0735dc4917",
          "transactionIndex": "0xa",
          "logIndex": "0x19",
          "removed": false
        },
        {
          "address": "0xCa14007Eff0dB1f8135f4C25B34De49AB0d42766",
          "topics": [
            "0xddf252ad1be2c89b69c2b068fc378daa952ba7f163c4a11628f55a4df523b3ef",
            "0x000000000000000000000000ddb342ecc94236c29a5307d3757d0724d759453c",
            "0x000000000000000000000000c8b71173d78ff0df2fea073215d4a3a98a83b931"
          ],
          "data": "0x000000000000000000000000000000000000000000000000000000000007a120",
          "blockHash": "0xd94454e02e257701493e5ccc27eb8fc7735b504af9024d6b6767e11d420dd0ed",
          "blockNumber": "0x6b0e7a",
          "transactionHash": "0x0e9d18edb3aa5f55fd982c07a45489cf0ccbed8b8a4f79b499defb0735dc4917",
          "transactionIndex": "0xa",
          "logIndex": "0x1a",
          "removed": false
        },
        {
          "address": "0xCa14007Eff0dB1f8135f4C25B34De49AB0d42766",
          "topics": [
            "0x8c5be1e5ebec7d5bd14f71427d1e84f3dd0314c0f7b2291e5b200ac8c7c3b925",
            "0x000000000000000000000000c8b71173d78ff0df2fea073215d4a3a98a83b931",
            "0x000000000000000000000000ce5485cfb26914c5dce00b9baf0580364dafc7a4"
          ],
          "data": "0x0000000000000000000000000000000000000000000000000000000000000000",
          "blockHash": "0xd94454e02e257701493e5ccc27eb8fc7735b504af9024d6b6767e11d420dd0ed",
          "blockNumber": "0x6b0e7a",
          "transactionHash": "0x0e9d18edb3aa5f55fd982c07a45489cf0ccbed8b8a4f79b499defb0735dc4917",
          "transactionIndex": "0xa",
          "logIndex": "0x1b",
          "removed": false
        },
        {
          "address": "0xCa14007Eff0dB1f8135f4C25B34De49AB0d42766",
          "topics": [
            "0x8c5be1e5ebec7d5bd14f71427d1e84f3dd0314c0f7b2291e5b200ac8c7c3b925",
            "0x000000000000000000000000c8b71173d78ff0df2fea073215d4a3a98a83b931",
            "0x000000000000000000000000ce5485cfb26914c5dce00b9baf0580364dafc7a4"
          ],
          "data": "0x000000000000000000000000000000000000000000000000000000000007a120",
          "blockHash": "0xd94454e02e257701493e5ccc27eb8fc7735b504af9024d6b6767e11d420dd0ed",
          "blockNumber": "0x6b0e7a",
          "transactionHash": "0x0e9d18edb3aa5f55fd982c07a45489cf0ccbed8b8a4f79b499defb0735dc4917",
          "transactionIndex": "0xa",
          "logIndex": "0x1c",
          "removed": false
        },
        {
          "address": "0xCa14007Eff0dB1f8135f4C25B34De49AB0d42766",
          "topics": [
            "0x8c5be1e5ebec7d5bd14f71427d1e84f3dd0314c0f7b2291e5b200ac8c7c3b925",
            "0x000000000000000000000000c8b71173d78ff0df2fea073215d4a3a98a83b931",
            "0x000000000000000000000000ce5485cfb26914c5dce00b9baf0580364dafc7a4"
          ],
          "data": "0x0000000000000000000000000000000000000000000000000000000000000000",
          "blockHash": "0xd94454e02e257701493e5ccc27eb8fc7735b504af9024d6b6767e11d420dd0ed",
          "blockNumber": "0x6b0e7a",
          "transactionHash": "0x0e9d18edb3aa5f55fd982c07a45489cf0ccbed8b8a4f79b499defb0735dc4917",
          "transactionIndex": "0xa",
          "logIndex": "0x1d",
          "removed": false
        },
        {
          "address": "0xCa14007Eff0dB1f8135f4C25B34De49AB0d42766",
          "topics": [
            "0xddf252ad1be2c89b69c2b068fc378daa952ba7f163c4a11628f55a4df523b3ef",
            "0x000000000000000000000000c8b71173d78ff0df2fea073215d4a3a98a83b931",
            "0x000000000000000000000000ce5485cfb26914c5dce00b9baf0580364dafc7a4"
          ],
          "data": "0x000000000000000000000000000000000000000000000000000000000007a120",
          "blockHash": "0xd94454e02e257701493e5ccc27eb8fc7735b504af9024d6b6767e11d420dd0ed",
          "blockNumber": "0x6b0e7a",
          "transactionHash": "0x0e9d18edb3aa5f55fd982c07a45489cf0ccbed8b8a4f79b499defb0735dc4917",
          "transactionIndex": "0xa",
          "logIndex": "0x1e",
          "removed": false
        },
        {
          "address": "0xE2Bb56ee936fd6433DC0F6e7e3b8365C906AA057",
          "topics": [
            "0xdb80dd488acf86d17c747445b0eabb5d57c541d3bd7b6b87af987858e5066b2b",
            "0x000000000000000000000000ce5485cfb26914c5dce00b9baf0580364dafc7a4",
            "0x0594c1582459ea03f77deaf9eb7e3917d6994a03c13405ba42867f83d85f085d",
            "0x008bce41827dd5484d80312a2e43bc42a896e3fcf75bf84c2b49339168dfa00a"
          ],
          "data": "0x0000000000000000000000000000000000000000000000000000000000000060000000000000000000000000000000000000000000000000000000000000273f000000000000000000000000000000000000000000000000002386f26fc10000000000000000000000000000000000000000000000000000000000000000000f000000000000000000000000ca14007eff0db1f8135f4c25b34de49ab0d42766000000000000000000000000c8b71173d78ff0df2fea073215d4a3a98a83b931074f2900b75a8b3c6df7c5790120d6c5c7f8e0333c428fbef045a93403dd4b75000000000000000000000000000000000000000000000000000000000007a120000000000000000000000000000000000000000000000000000000000000000000000000000000000000000000000000000000000000000000000000000000090000000000000000000000000000000000000000000000000000000000000000000000000000000000000000ca14007eff0db1f8135f4c25b34de49ab0d42766000000000000000000000000ddb342ecc94236c29a5307d3757d0724d759453c000000000000000000000000ca14007eff0db1f8135f4c25b34de49ab0d42766000000000000000000000000000000000000000000000000002386f26fc10000000000000000000000000000000000000000000000000000000000006729e7d0000000000000000000000000000000000000000000000000000000006729e810000000000000000000000000000000000000000000000000000000000007a120074f2900b75a8b3c6df7c5790120d6c5c7f8e0333c428fbef045a93403dd4b75",
          "blockHash": "0xd94454e02e257701493e5ccc27eb8fc7735b504af9024d6b6767e11d420dd0ed",
          "blockNumber": "0x6b0e7a",
          "transactionHash": "0x0e9d18edb3aa5f55fd982c07a45489cf0ccbed8b8a4f79b499defb0735dc4917",
          "transactionIndex": "0xa",
          "logIndex": "0x1f",
          "removed": false
        },
        {
          "address": "0xcE5485Cfb26914C5dcE00B9BAF0580364daFC7a4",
          "topics": [
            "0x2203a49c69f1a46c1164f5e4a30643dd77b7c59c0ff9bc433256048365c247f1",
            "0x000000000000000000000000c8b71173d78ff0df2fea073215d4a3a98a83b931",
            "0x000000000000000000000000ca14007eff0db1f8135f4c25b34de49ab0d42766",
            "0x074f2900b75a8b3c6df7c5790120d6c5c7f8e0333c428fbef045a93403dd4b75"
          ],
          "data": "0x000000000000000000000000000000000000000000000000000000000007a1200000000000000000000000000000000000000000000000000000000000000080000000000000000000000000000000000000000000000000000000000000273f000000000000000000000000000000000000000000000000002386f26fc1000000000000000000000000000000000000000000000000000000000000000000090000000000000000000000000000000000000000000000000000000000000000000000000000000000000000ca14007eff0db1f8135f4c25b34de49ab0d42766000000000000000000000000ddb342ecc94236c29a5307d3757d0724d759453c000000000000000000000000ca14007eff0db1f8135f4c25b34de49ab0d42766000000000000000000000000000000000000000000000000002386f26fc10000000000000000000000000000000000000000000000000000000000006729e7d0000000000000000000000000000000000000000000000000000000006729e810000000000000000000000000000000000000000000000000000000000007a120074f2900b75a8b3c6df7c5790120d6c5c7f8e0333c428fbef045a93403dd4b75",
          "blockHash": "0xd94454e02e257701493e5ccc27eb8fc7735b504af9024d6b6767e11d420dd0ed",
          "blockNumber": "0x6b0e7a",
          "transactionHash": "0x0e9d18edb3aa5f55fd982c07a45489cf0ccbed8b8a4f79b499defb0735dc4917",
          "transactionIndex": "0xa",
          "logIndex": "0x20",
          "removed": false
        },
        {
          "address": "0xC8b71173D78fF0Df2Fea073215d4a3a98a83b931",
          "topics": [
            "0xaf43445f7721522b7a3864ed3de53d7e2e658bfa1eeffa18e1e229be68ce2545",
            "0x000000000000000000000000ddb342ecc94236c29a5307d3757d0724d759453c",
            "0x074f2900b75a8b3c6df7c5790120d6c5c7f8e0333c428fbef045a93403dd4b75"
          ],
          "data": "0x000000000000000000000000000000000000000000000000000000000007a1200000000000000000000000000000000000000000000000000000000000000001",
          "blockHash": "0xd94454e02e257701493e5ccc27eb8fc7735b504af9024d6b6767e11d420dd0ed",
          "blockNumber": "0x6b0e7a",
          "transactionHash": "0x0e9d18edb3aa5f55fd982c07a45489cf0ccbed8b8a4f79b499defb0735dc4917",
          "transactionIndex": "0xa",
          "logIndex": "0x21",
          "removed": false
        }
      ],
      "status": "0x1",
      "logsBloom": "0x00000200000000000000000000220000000000000000000000000040000000000008000000000000000000000000000000000000000004000000020000200000000000000000000100000008080000000000004000000040001000000000000600000000100000000000000000000000400000000000000000000010400008002000000000000000000000020000000000008000000200000000000000000010020000800000000000000020000000021010000000000000000000000000000000800002000000024010000000000000000000200000000000800000000000004010000000010000000000020004002000400000001000000000000000000000",
      "type": "0x2",
      "effectiveGasPrice": "0x42dd2a2b7"
    }
  ],
  "libraries": [],
  "pending": [],
  "returns": {},
  "timestamp": 1730799639,
  "chain": 11155111,
  "multi": false,
  "commit": "83f46e2"
}