{
  "transactions": [
    {
      "hash": "0x74cf7e34eb1e5c122cbef65e698acd440a68d1730ac7e4a79d9b24cfae707b06",
      "transactionType": "CALL",
      "contractName": "StarkNetToken",
      "contractAddress": "0xCa14007Eff0dB1f8135f4C25B34De49AB0d42766",
      "function": "approve(address,uint256)",
      "arguments": [
        "0x1F7F7f1F9f03ebd10169421713fC91881425AA0A",
        "500000"
      ],
      "transaction": {
        "type": "0x02",
        "from": "0xddb342ecc94236c29a5307d3757d0724d759453c",
        "to": "0xca14007eff0db1f8135f4c25b34de49ab0d42766",
        "gas": "0xfd27",
        "value": "0x0",
        "data": "0x095ea7b30000000000000000000000001f7f7f1f9f03ebd10169421713fc91881425aa0a000000000000000000000000000000000000000000000000000000000007a120",
        "nonce": "0x17b",
        "accessList": []
      },
      "additionalContracts": [],
      "isFixedGasLimit": false
    },
    {
      "hash": "0x60b05159f686a88386ab281c1c717ef5af31f4e18ed7674fdef7492c4c61b9e2",
      "transactionType": "CALL",
      "contractName": null,
      "contractAddress": "0x1F7F7f1F9f03ebd10169421713fC91881425AA0A",
      "function": "depositAndCreateOrder(uint256,uint256,uint128,uint128,address,address,uint128)",
      "arguments": [
        "500000",
        "1688790644293257248594346693575694179189087689031518234438045115982820653038",
        "1730561712",
        "1730561776",
        "0xCa14007Eff0dB1f8135f4C25B34De49AB0d42766",
        "0xCa14007Eff0dB1f8135f4C25B34De49AB0d42766",
        "10000000000000000"
      ],
      "transaction": {
        "type": "0x02",
        "from": "0xddb342ecc94236c29a5307d3757d0724d759453c",
        "to": "0x1f7f7f1f9f03ebd10169421713fc91881425aa0a",
        "gas": "0x3b8a4",
        "value": "0x2386f26fc10000",
        "data": "0x76d2d72e000000000000000000000000000000000000000000000000000000000007a12003bbd256734abe14157da0af3a16436d046e1bf2b77bb97567b88d5d530fb7ee00000000000000000000000000000000000000000000000000000000672646b000000000000000000000000000000000000000000000000000000000672646f0000000000000000000000000ca14007eff0db1f8135f4c25b34de49ab0d42766000000000000000000000000ca14007eff0db1f8135f4c25b34de49ab0d42766000000000000000000000000000000000000000000000000002386f26fc10000",
        "nonce": "0x17c",
        "accessList": []
      },
      "additionalContracts": [],
      "isFixedGasLimit": false
    }
  ],
  "receipts": [
    {
      "transactionHash": "0x74cf7e34eb1e5c122cbef65e698acd440a68d1730ac7e4a79d9b24cfae707b06",
      "transactionIndex": "0x5",
      "blockHash": "0x0e00d58f40a8135b44173b4529aaf425a8848644beaa1cc27da5448670abbc89",
      "blockNumber": "0x6ac73b",
      "from": "0xDdb342ecc94236c29a5307d3757d0724D759453C",
      "to": "0xCa14007Eff0dB1f8135f4C25B34De49AB0d42766",
      "cumulativeGasUsed": "0x7ddb55",
      "gasUsed": "0xb748",
      "contractAddress": null,
      "logs": [
        {
          "address": "0xCa14007Eff0dB1f8135f4C25B34De49AB0d42766",
          "topics": [
            "0x8c5be1e5ebec7d5bd14f71427d1e84f3dd0314c0f7b2291e5b200ac8c7c3b925",
            "0x000000000000000000000000ddb342ecc94236c29a5307d3757d0724d759453c",
            "0x0000000000000000000000001f7f7f1f9f03ebd10169421713fc91881425aa0a"
          ],
          "data": "0x000000000000000000000000000000000000000000000000000000000007a120",
          "blockHash": "0x0e00d58f40a8135b44173b4529aaf425a8848644beaa1cc27da5448670abbc89",
          "blockNumber": "0x6ac73b",
          "transactionHash": "0x74cf7e34eb1e5c122cbef65e698acd440a68d1730ac7e4a79d9b24cfae707b06",
          "transactionIndex": "0x5",
          "logIndex": "0x160",
          "removed": false
        }
      ],
      "status": "0x1",
      "logsBloom": "0x00000000000000000000000000000000000000000000000000000000000000000000000000000000000000000000020000000000000000000000000000200000000000000000000000000000000008000000000000000000000000000000000400000000000000000000000000000000400000000000000000000000400000000000000000000000000000000000000000000000000000000000000000000000120000000000000000000000000000000000000000000000000000000000000000000000000000020000000000000000000000000000000000800000000000000010000000000000000000000000000000000000001000000000000000000000",
      "type": "0x2",
      "effectiveGasPrice": "0x3042a3301"
    },
    {
      "transactionHash": "0x60b05159f686a88386ab281c1c717ef5af31f4e18ed7674fdef7492c4c61b9e2",
      "transactionIndex": "0x6",
      "blockHash": "0x0e00d58f40a8135b44173b4529aaf425a8848644beaa1cc27da5448670abbc89",
      "blockNumber": "0x6ac73b",
      "from": "0xDdb342ecc94236c29a5307d3757d0724D759453C",
      "to": "0x1F7F7f1F9f03ebd10169421713fC91881425AA0A",
      "cumulativeGasUsed": "0x806651",
      "gasUsed": "0x28afc",
      "contractAddress": null,
      "logs": [
        {
          "address": "0xCa14007Eff0dB1f8135f4C25B34De49AB0d42766",
          "topics": [
            "0x8c5be1e5ebec7d5bd14f71427d1e84f3dd0314c0f7b2291e5b200ac8c7c3b925",
            "0x0000000000000000000000001f7f7f1f9f03ebd10169421713fc91881425aa0a",
            "0x000000000000000000000000ce5485cfb26914c5dce00b9baf0580364dafc7a4"
          ],
          "data": "0x000000000000000000000000000000000000000000000000000000000007a120",
          "blockHash": "0x0e00d58f40a8135b44173b4529aaf425a8848644beaa1cc27da5448670abbc89",
          "blockNumber": "0x6ac73b",
          "transactionHash": "0x60b05159f686a88386ab281c1c717ef5af31f4e18ed7674fdef7492c4c61b9e2",
          "transactionIndex": "0x6",
          "logIndex": "0x161",
          "removed": false
        },
        {
          "address": "0xCa14007Eff0dB1f8135f4C25B34De49AB0d42766",
          "topics": [
            "0x8c5be1e5ebec7d5bd14f71427d1e84f3dd0314c0f7b2291e5b200ac8c7c3b925",
            "0x000000000000000000000000ddb342ecc94236c29a5307d3757d0724d759453c",
            "0x0000000000000000000000001f7f7f1f9f03ebd10169421713fc91881425aa0a"
          ],
          "data": "0x0000000000000000000000000000000000000000000000000000000000000000",
          "blockHash": "0x0e00d58f40a8135b44173b4529aaf425a8848644beaa1cc27da5448670abbc89",
          "blockNumber": "0x6ac73b",
          "transactionHash": "0x60b05159f686a88386ab281c1c717ef5af31f4e18ed7674fdef7492c4c61b9e2",
          "transactionIndex": "0x6",
          "logIndex": "0x162",
          "removed": false
        },
        {
          "address": "0xCa14007Eff0dB1f8135f4C25B34De49AB0d42766",
          "topics": [
            "0xddf252ad1be2c89b69c2b068fc378daa952ba7f163c4a11628f55a4df523b3ef",
            "0x000000000000000000000000ddb342ecc94236c29a5307d3757d0724d759453c",
            "0x0000000000000000000000001f7f7f1f9f03ebd10169421713fc91881425aa0a"
          ],
          "data": "0x000000000000000000000000000000000000000000000000000000000007a120",
          "blockHash": "0x0e00d58f40a8135b44173b4529aaf425a8848644beaa1cc27da5448670abbc89",
          "blockNumber": "0x6ac73b",
          "transactionHash": "0x60b05159f686a88386ab281c1c717ef5af31f4e18ed7674fdef7492c4c61b9e2",
          "transactionIndex": "0x6",
          "logIndex": "0x163",
          "removed": false
        },
        {
          "address": "0xCa14007Eff0dB1f8135f4C25B34De49AB0d42766",
          "topics": [
            "0x8c5be1e5ebec7d5bd14f71427d1e84f3dd0314c0f7b2291e5b200ac8c7c3b925",
            "0x0000000000000000000000001f7f7f1f9f03ebd10169421713fc91881425aa0a",
            "0x000000000000000000000000ce5485cfb26914c5dce00b9baf0580364dafc7a4"
          ],
          "data": "0x0000000000000000000000000000000000000000000000000000000000000000",
          "blockHash": "0x0e00d58f40a8135b44173b4529aaf425a8848644beaa1cc27da5448670abbc89",
          "blockNumber": "0x6ac73b",
          "transactionHash": "0x60b05159f686a88386ab281c1c717ef5af31f4e18ed7674fdef7492c4c61b9e2",
          "transactionIndex": "0x6",
          "logIndex": "0x164",
          "removed": false
        },
        {
          "address": "0xCa14007Eff0dB1f8135f4C25B34De49AB0d42766",
          "topics": [
            "0xddf252ad1be2c89b69c2b068fc378daa952ba7f163c4a11628f55a4df523b3ef",
            "0x0000000000000000000000001f7f7f1f9f03ebd10169421713fc91881425aa0a",
            "0x000000000000000000000000ce5485cfb26914c5dce00b9baf0580364dafc7a4"
          ],
          "data": "0x000000000000000000000000000000000000000000000000000000000007a120",
          "blockHash": "0x0e00d58f40a8135b44173b4529aaf425a8848644beaa1cc27da5448670abbc89",
          "blockNumber": "0x6ac73b",
          "transactionHash": "0x60b05159f686a88386ab281c1c717ef5af31f4e18ed7674fdef7492c4c61b9e2",
          "transactionIndex": "0x6",
          "logIndex": "0x165",
          "removed": false
        },
        {
          "address": "0xE2Bb56ee936fd6433DC0F6e7e3b8365C906AA057",
          "topics": [
            "0xdb80dd488acf86d17c747445b0eabb5d57c541d3bd7b6b87af987858e5066b2b",
            "0x000000000000000000000000ce5485cfb26914c5dce00b9baf0580364dafc7a4",
            "0x0594c1582459ea03f77deaf9eb7e3917d6994a03c13405ba42867f83d85f085d",
            "0x008bce41827dd5484d80312a2e43bc42a896e3fcf75bf84c2b49339168dfa00a"
          ],
          "data": "0x00000000000000000000000000000000000000000000000000000000000000600000000000000000000000000000000000000000000000000000000000002662000000000000000000000000000000000000000000000000002386f26fc10000000000000000000000000000000000000000000000000000000000000000000b000000000000000000000000ca14007eff0db1f8135f4c25b34de49ab0d427660000000000000000000000001f7f7f1f9f03ebd10169421713fc91881425aa0a03bbd256734abe14157da0af3a16436d046e1bf2b77bb97567b88d5d530fb7ee000000000000000000000000000000000000000000000000000000000007a12000000000000000000000000000000000000000000000000000000000000000000000000000000000000000000000000000000000000000000000000000000005000000000000000000000000ca14007eff0db1f8135f4c25b34de49ab0d42766000000000000000000000000ddb342ecc94236c29a5307d3757d0724d759453c03bbd256734abe14157da0af3a16436d046e1bf2b77bb97567b88d5d530fb7ee000000000000000000000000000000000000000000000000000000000007a1200000000000000000000000000000000000000000000000000000000000000000",
          "blockHash": "0x0e00d58f40a8135b44173b4529aaf425a8848644beaa1cc27da5448670abbc89",
          "blockNumber": "0x6ac73b",
          "transactionHash": "0x60b05159f686a88386ab281c1c717ef5af31f4e18ed7674fdef7492c4c61b9e2",
          "transactionIndex": "0x6",
          "logIndex": "0x166",
          "removed": false
        },
        {
          "address": "0xcE5485Cfb26914C5dcE00B9BAF0580364daFC7a4",
          "topics": [
            "0x2203a49c69f1a46c1164f5e4a30643dd77b7c59c0ff9bc433256048365c247f1",
            "0x0000000000000000000000001f7f7f1f9f03ebd10169421713fc91881425aa0a",
            "0x000000000000000000000000ca14007eff0db1f8135f4c25b34de49ab0d42766",
            "0x03bbd256734abe14157da0af3a16436d046e1bf2b77bb97567b88d5d530fb7ee"
          ],
          "data": "0x000000000000000000000000000000000000000000000000000000000007a12000000000000000000000000000000000000000000000000000000000000000800000000000000000000000000000000000000000000000000000000000002662000000000000000000000000000000000000000000000000002386f26fc100000000000000000000000000000000000000000000000000000000000000000005000000000000000000000000ca14007eff0db1f8135f4c25b34de49ab0d42766000000000000000000000000ddb342ecc94236c29a5307d3757d0724d759453c03bbd256734abe14157da0af3a16436d046e1bf2b77bb97567b88d5d530fb7ee000000000000000000000000000000000000000000000000000000000007a1200000000000000000000000000000000000000000000000000000000000000000",
          "blockHash": "0x0e00d58f40a8135b44173b4529aaf425a8848644beaa1cc27da5448670abbc89",
          "blockNumber": "0x6ac73b",
          "transactionHash": "0x60b05159f686a88386ab281c1c717ef5af31f4e18ed7674fdef7492c4c61b9e2",
          "transactionIndex": "0x6",
          "logIndex": "0x167",
          "removed": false
        },
        {
          "address": "0x1F7F7f1F9f03ebd10169421713fC91881425AA0A",
          "topics": [
            "0xaf43445f7721522b7a3864ed3de53d7e2e658bfa1eeffa18e1e229be68ce2545",
            "0x000000000000000000000000ddb342ecc94236c29a5307d3757d0724d759453c",
            "0x03bbd256734abe14157da0af3a16436d046e1bf2b77bb97567b88d5d530fb7ee"
          ],
          "data": "0x000000000000000000000000000000000000000000000000000000000007a1200000000000000000000000000000000000000000000000000000000000000001",
          "blockHash": "0x0e00d58f40a8135b44173b4529aaf425a8848644beaa1cc27da5448670abbc89",
          "blockNumber": "0x6ac73b",
          "transactionHash": "0x60b05159f686a88386ab281c1c717ef5af31f4e18ed7674fdef7492c4c61b9e2",
          "transactionIndex": "0x6",
          "logIndex": "0x168",
          "removed": false
        }
      ],
      "status": "0x1",
      "logsBloom": "0x00000200000002000000000000020000000000000000000000000040000000000000000000000000000001000000020000000000000004000000020000200000000000000000000000000008080008000000000000000040001000000000000600000000100000000000000000000000400000000000000000000010400008002000080000000000000000020000000000008000000200000000000000000010120000c00000040000000020000000021000000000000000000000000000000000800002000000024010000000000000000000200000000000800000000000000010000000030000000000020004000000000000001000000000000000000000",
      "type": "0x2",
      "effectiveGasPrice": "0x3042a3301"
    }
  ],
  "libraries": [],
  "pending": [],
  "returns": {},
  "timestamp": 1730561756,
  "chain": 11155111,
  "multi": false,
  "commit": "5c94acc"
}