{
  "transactions": [
    {
      "hash": "0x1b58f8741d8141e36bf23e8d42f9d903cccaf46d7c501d4a98125e8a8180f6cf",
      "transactionType": "CALL",
      "contractName": "StarkNetToken",
      "contractAddress": "0xCa14007Eff0dB1f8135f4C25B34De49AB0d42766",
      "function": "approve(address,uint256)",
      "arguments": [
        "0x2F0Db9350dE8E7Dd53830027c75a452e540d47Ed",
        "500000"
      ],
      "transaction": {
        "type": "0x02",
        "from": "0xddb342ecc94236c29a5307d3757d0724d759453c",
        "to": "0xca14007eff0db1f8135f4c25b34de49ab0d42766",
        "gas": "0xfd16",
        "value": "0x0",
        "data": "0x095ea7b30000000000000000000000002f0db9350de8e7dd53830027c75a452e540d47ed000000000000000000000000000000000000000000000000000000000007a120",
        "nonce": "0x182",
        "accessList": []
      },
      "additionalContracts": [],
      "isFixedGasLimit": false
    },
    {
      "hash": "0xf4529816643b0f2f0ed08a002669d814cbba8d6048e3da57c8d250cfff6bce47",
      "transactionType": "CALL",
      "contractName": null,
      "contractAddress": "0x2F0Db9350dE8E7Dd53830027c75a452e540d47Ed",
      "function": "depositAndCreateOrder(uint256,uint256,uint128,uint128,address,address,uint128)",
      "arguments": [
        "500000",
        "2362843168436938087436505725524109248145201081274854334932689195182110698737",
        "1730571376",
        "1730571440",
        "0xCa14007Eff0dB1f8135f4C25B34De49AB0d42766",
        "0xCa14007Eff0dB1f8135f4C25B34De49AB0d42766",
        "10000000000000000"
      ],
      "transaction": {
        "type": "0x02",
        "from": "0xddb342ecc94236c29a5307d3757d0724d759453c",
        "to": "0x2f0db9350de8e7dd53830027c75a452e540d47ed",
        "gas": "0x367bb",
        "value": "0x2386f26fc10000",
        "data": "0x76d2d72e000000000000000000000000000000000000000000000000000000000007a12005395264227fa945dcc99ed1448b1e09a99857f8369a7a9b64067d835d6e6cf10000000000000000000000000000000000000000000000000000000067266c700000000000000000000000000000000000000000000000000000000067266cb0000000000000000000000000ca14007eff0db1f8135f4c25b34de49ab0d42766000000000000000000000000ca14007eff0db1f8135f4c25b34de49ab0d42766000000000000000000000000000000000000000000000000002386f26fc10000",
        "nonce": "0x183",
        "accessList": []
      },
      "additionalContracts": [],
      "isFixedGasLimit": false
    }
  ],
  "receipts": [
    {
      "transactionHash": "0x1b58f8741d8141e36bf23e8d42f9d903cccaf46d7c501d4a98125e8a8180f6cf",
      "transactionIndex": "0x1",
      "blockHash": "0x1aecdc1983edd9c9ca8910a8d980eb232e2282aa6c8963bb5f7bc77bb10900d7",
      "blockNumber": "0x6aca2a",
      "from": "0xDdb342ecc94236c29a5307d3757d0724D759453C",
      "to": "0xCa14007Eff0dB1f8135f4C25B34De49AB0d42766",
      "cumulativeGasUsed": "0x2ec32",
      "gasUsed": "0xb73c",
      "contractAddress": null,
      "logs": [
        {
          "address": "0xCa14007Eff0dB1f8135f4C25B34De49AB0d42766",
          "topics": [
            "0x8c5be1e5ebec7d5bd14f71427d1e84f3dd0314c0f7b2291e5b200ac8c7c3b925",
            "0x000000000000000000000000ddb342ecc94236c29a5307d3757d0724d759453c",
            "0x0000000000000000000000002f0db9350de8e7dd53830027c75a452e540d47ed"
          ],
          "data": "0x000000000000000000000000000000000000000000000000000000000007a120",
          "blockHash": "0x1aecdc1983edd9c9ca8910a8d980eb232e2282aa6c8963bb5f7bc77bb10900d7",
          "blockNumber": "0x6aca2a",
          "transactionHash": "0x1b58f8741d8141e36bf23e8d42f9d903cccaf46d7c501d4a98125e8a8180f6cf",
          "transactionIndex": "0x1",
          "logIndex": "0x1",
          "removed": false
        }
      ],
      "status": "0x1",
      "logsBloom": "0x08000000000000000000000000000000000000000000000000000000000000000000000000000000000000000000000000000000000000000000000000200000000000000000000000000000000000000000000000000000000000000000000400000000000000000000000000000000400000000000000000000000400000000000000000000000000000000000000000000000000000000000000000000000020000000000000000000000000000000000000000000000000000000000000000020000000000020000001000000000000000000000000000800000000000000010000000000000000000000000000000000000001000000000000000000000",
      "type": "0x2",
      "effectiveGasPrice": "0x15f62518a"
    },
    {
      "transactionHash": "0xf4529816643b0f2f0ed08a002669d814cbba8d6048e3da57c8d250cfff6bce47",
      "transactionIndex": "0x2",
      "blockHash": "0x1aecdc1983edd9c9ca8910a8d980eb232e2282aa6c8963bb5f7bc77bb10900d7",
      "blockNumber": "0x6aca2a",
      "from": "0xDdb342ecc94236c29a5307d3757d0724D759453C",
      "to": "0x2F0Db9350dE8E7Dd53830027c75a452e540d47Ed",
      "cumulativeGasUsed": "0x562ec",
      "gasUsed": "0x276ba",
      "contractAddress": null,
      "logs": [
        {
          "address": "0xCa14007Eff0dB1f8135f4C25B34De49AB0d42766",
          "topics": [
            "0x8c5be1e5ebec7d5bd14f71427d1e84f3dd0314c0f7b2291e5b200ac8c7c3b925",
            "0x0000000000000000000000002f0db9350de8e7dd53830027c75a452e540d47ed",
            "0x000000000000000000000000ce5485cfb26914c5dce00b9baf0580364dafc7a4"
          ],
          "data": "0x000000000000000000000000000000000000000000000000000000000007a120",
          "blockHash": "0x1aecdc1983edd9c9ca8910a8d980eb232e2282aa6c8963bb5f7bc77bb10900d7",
          "blockNumber": "0x6aca2a",
          "transactionHash": "0xf4529816643b0f2f0ed08a002669d814cbba8d6048e3da57c8d250cfff6bce47",
          "transactionIndex": "0x2",
          "logIndex": "0x2",
          "removed": false
        },
        {
          "address": "0xCa14007Eff0dB1f8135f4C25B34De49AB0d42766",
          "topics": [
            "0x8c5be1e5ebec7d5bd14f71427d1e84f3dd0314c0f7b2291e5b200ac8c7c3b925",
            "0x000000000000000000000000ddb342ecc94236c29a5307d3757d0724d759453c",
            "0x0000000000000000000000002f0db9350de8e7dd53830027c75a452e540d47ed"
          ],
          "data": "0x0000000000000000000000000000000000000000000000000000000000000000",
          "blockHash": "0x1aecdc1983edd9c9ca8910a8d980eb232e2282aa6c8963bb5f7bc77bb10900d7",
          "blockNumber": "0x6aca2a",
          "transactionHash": "0xf4529816643b0f2f0ed08a002669d814cbba8d6048e3da57c8d250cfff6bce47",
          "transactionIndex": "0x2",
          "logIndex": "0x3",
          "removed": false
        },
        {
          "address": "0xCa14007Eff0dB1f8135f4C25B34De49AB0d42766",
          "topics": [
            "0xddf252ad1be2c89b69c2b068fc378daa952ba7f163c4a11628f55a4df523b3ef",
            "0x000000000000000000000000ddb342ecc94236c29a5307d3757d0724d759453c",
            "0x0000000000000000000000002f0db9350de8e7dd53830027c75a452e540d47ed"
          ],
          "data": "0x000000000000000000000000000000000000000000000000000000000007a120",
          "blockHash": "0x1aecdc1983edd9c9ca8910a8d980eb232e2282aa6c8963bb5f7bc77bb10900d7",
          "blockNumber": "0x6aca2a",
          "transactionHash": "0xf4529816643b0f2f0ed08a002669d814cbba8d6048e3da57c8d250cfff6bce47",
          "transactionIndex": "0x2",
          "logIndex": "0x4",
          "removed": false
        },
        {
          "address": "0xCa14007Eff0dB1f8135f4C25B34De49AB0d42766",
          "topics": [
            "0x8c5be1e5ebec7d5bd14f71427d1e84f3dd0314c0f7b2291e5b200ac8c7c3b925",
            "0x0000000000000000000000002f0db9350de8e7dd53830027c75a452e540d47ed",
            "0x000000000000000000000000ce5485cfb26914c5dce00b9baf0580364dafc7a4"
          ],
          "data": "0x0000000000000000000000000000000000000000000000000000000000000000",
          "blockHash": "0x1aecdc1983edd9c9ca8910a8d980eb232e2282aa6c8963bb5f7bc77bb10900d7",
          "blockNumber": "0x6aca2a",
          "transactionHash": "0xf4529816643b0f2f0ed08a002669d814cbba8d6048e3da57c8d250cfff6bce47",
          "transactionIndex": "0x2",
          "logIndex": "0x5",
          "removed": false
        },
        {
          "address": "0xCa14007Eff0dB1f8135f4C25B34De49AB0d42766",
          "topics": [
            "0xddf252ad1be2c89b69c2b068fc378daa952ba7f163c4a11628f55a4df523b3ef",
            "0x0000000000000000000000002f0db9350de8e7dd53830027c75a452e540d47ed",
            "0x000000000000000000000000ce5485cfb26914c5dce00b9baf0580364dafc7a4"
          ],
          "data": "0x000000000000000000000000000000000000000000000000000000000007a120",
          "blockHash": "0x1aecdc1983edd9c9ca8910a8d980eb232e2282aa6c8963bb5f7bc77bb10900d7",
          "blockNumber": "0x6aca2a",
          "transactionHash": "0xf4529816643b0f2f0ed08a002669d814cbba8d6048e3da57c8d250cfff6bce47",
          "transactionIndex": "0x2",
          "logIndex": "0x6",
          "removed": false
        },
        {
          "address": "0xE2Bb56ee936fd6433DC0F6e7e3b8365C906AA057",
          "topics": [
            "0xdb80dd488acf86d17c747445b0eabb5d57c541d3bd7b6b87af987858e5066b2b",
            "0x000000000000000000000000ce5485cfb26914c5dce00b9baf0580364dafc7a4",
            "0x0594c1582459ea03f77deaf9eb7e3917d6994a03c13405ba42867f83d85f085d",
            "0x008bce41827dd5484d80312a2e43bc42a896e3fcf75bf84c2b49339168dfa00a"
          ],
          "data": "0x00000000000000000000000000000000000000000000000000000000000000600000000000000000000000000000000000000000000000000000000000002666000000000000000000000000000000000000000000000000002386f26fc100000000000000000000000000000000000000000000000000000000000000000006000000000000000000000000ca14007eff0db1f8135f4c25b34de49ab0d427660000000000000000000000002f0db9350de8e7dd53830027c75a452e540d47ed05395264227fa945dcc99ed1448b1e09a99857f8369a7a9b64067d835d6e6cf1000000000000000000000000000000000000000000000000000000000007a12000000000000000000000000000000000000000000000000000000000000000000000000000000000000000000000000000000000000000000000000000000000",
          "blockHash": "0x1aecdc1983edd9c9ca8910a8d980eb232e2282aa6c8963bb5f7bc77bb10900d7",
          "blockNumber": "0x6aca2a",
          "transactionHash": "0xf4529816643b0f2f0ed08a002669d814cbba8d6048e3da57c8d250cfff6bce47",
          "transactionIndex": "0x2",
          "logIndex": "0x7",
          "removed": false
        },
        {
          "address": "0xcE5485Cfb26914C5dcE00B9BAF0580364daFC7a4",
          "topics": [
            "0x2203a49c69f1a46c1164f5e4a30643dd77b7c59c0ff9bc433256048365c247f1",
            "0x0000000000000000000000002f0db9350de8e7dd53830027c75a452e540d47ed",
            "0x000000000000000000000000ca14007eff0db1f8135f4c25b34de49ab0d42766",
            "0x05395264227fa945dcc99ed1448b1e09a99857f8369a7a9b64067d835d6e6cf1"
          ],
          "data": "0x000000000000000000000000000000000000000000000000000000000007a12000000000000000000000000000000000000000000000000000000000000000800000000000000000000000000000000000000000000000000000000000002666000000000000000000000000000000000000000000000000002386f26fc100000000000000000000000000000000000000000000000000000000000000000000",
          "blockHash": "0x1aecdc1983edd9c9ca8910a8d980eb232e2282aa6c8963bb5f7bc77bb10900d7",
          "blockNumber": "0x6aca2a",
          "transactionHash": "0xf4529816643b0f2f0ed08a002669d814cbba8d6048e3da57c8d250cfff6bce47",
          "transactionIndex": "0x2",
          "logIndex": "0x8",
          "removed": false
        },
        {
          "address": "0x2F0Db9350dE8E7Dd53830027c75a452e540d47Ed",
          "topics": [
            "0xaf43445f7721522b7a3864ed3de53d7e2e658bfa1eeffa18e1e229be68ce2545",
            "0x000000000000000000000000ddb342ecc94236c29a5307d3757d0724d759453c",
            "0x05395264227fa945dcc99ed1448b1e09a99857f8369a7a9b64067d835d6e6cf1"
          ],
          "data": "0x000000000000000000000000000000000000000000000000000000000007a1200000000000000000000000000000000000000000000000000000000000000001",
          "blockHash": "0x1aecdc1983edd9c9ca8910a8d980eb232e2282aa6c8963bb5f7bc77bb10900d7",
          "blockNumber": "0x6aca2a",
          "transactionHash": "0xf4529816643b0f2f0ed08a002669d814cbba8d6048e3da57c8d250cfff6bce47",
          "transactionIndex": "0x2",
          "logIndex": "0x9",
          "removed": false
        }
      ],
      "status": "0x1",
      "logsBloom": "0x08000200000000000000000000020000000000000000000000000040000000000000000000000000000000000000000000000000000004000000020000300000000000000000000000000008080000000000000000000040001000000000000600000000900000000000000000000000400000000000000000000010400008002000000000000000000008020000000000008000000200100000000000000010020000800008000000000020000000021000000000000000000000000000000000820002000000024010001000000000000000200000000000800800000000000010000000010000000000020004000000000000001000000000000000000000",
      "type": "0x2",
      "effectiveGasPrice": "0x15f62518a"
    }
  ],
  "libraries": [],
  "pending": [],
  "returns": {},
  "timestamp": 1730571426,
  "chain": 11155111,
  "multi": false,
  "commit": "8c1a6b6"
}