{
  "transactions": [
    {
      "hash": "0x8c47330327de01623359fc61463a078a2d3d66a58330f5722a1966bc139d2cc8",
      "transactionType": "CALL",
      "contractName": "StarkNetToken",
      "contractAddress": "0xCa14007Eff0dB1f8135f4C25B34De49AB0d42766",
      "function": "approve(address,uint256)",
      "arguments": [
        "0x1F7F7f1F9f03ebd10169421713fC91881425AA0A",
        "500000"
      ],
      "transaction": {
        "type": "0x02",
        "from": "0xddb342ecc94236c29a5307d3757d0724d759453c",
        "to": "0xca14007eff0db1f8135f4c25b34de49ab0d42766",
        "gas": "0xfd27",
        "value": "0x0",
        "data": "0x095ea7b30000000000000000000000001f7f7f1f9f03ebd10169421713fc91881425aa0a000000000000000000000000000000000000000000000000000000000007a120",
        "nonce": "0x179",
        "accessList": []
      },
      "additionalContracts": [],
      "isFixedGasLimit": false
    },
    {
      "hash": "0x9a990d509fc54352cd8fb565d846d9357d66980b1390a2a5e23e4b8d8ec01c00",
      "transactionType": "CALL",
      "contractName": null,
      "contractAddress": "0x1F7F7f1F9f03ebd10169421713fC91881425AA0A",
      "function": "depositWithMessage(uint256,uint256,uint256[])",
      "arguments": [
        "500000",
        "1688790644293257248594346693575694179189087689031518234438045115982820653038",
        "[1688790644293257248594346693575694179189087689031518234438045115982820653038, 500000, 0]"
      ],
      "transaction": {
        "type": "0x02",
        "from": "0xddb342ecc94236c29a5307d3757d0724d759453c",
        "to": "0x1f7f7f1f9f03ebd10169421713fc91881425aa0a",
        "gas": "0x363d4",
        "value": "0x2386f26fc10000",
        "data": "0xfc251e34000000000000000000000000000000000000000000000000000000000007a12003bbd256734abe14157da0af3a16436d046e1bf2b77bb97567b88d5d530fb7ee0000000000000000000000000000000000000000000000000000000000000060000000000000000000000000000000000000000000000000000000000000000303bbd256734abe14157da0af3a16436d046e1bf2b77bb97567b88d5d530fb7ee000000000000000000000000000000000000000000000000000000000007a1200000000000000000000000000000000000000000000000000000000000000000",
        "nonce": "0x17a",
        "accessList": []
      },
      "additionalContracts": [],
      "isFixedGasLimit": false
    }
  ],
  "receipts": [
    {
      "transactionHash": "0x8c47330327de01623359fc61463a078a2d3d66a58330f5722a1966bc139d2cc8",
      "transactionIndex": "0x8",
      "blockHash": "0x3e0b2c78b1cd32c4b615d6a0a555646d3e3c53fe151ddb6eaaf422e35ac4c435",
      "blockNumber": "0x6ac730",
      "from": "0xDdb342ecc94236c29a5307d3757d0724D759453C",
      "to": "0xCa14007Eff0dB1f8135f4C25B34De49AB0d42766",
      "cumulativeGasUsed": "0x612fae",
      "gasUsed": "0xb748",
      "contractAddress": null,
      "logs": [
        {
          "address": "0xCa14007Eff0dB1f8135f4C25B34De49AB0d42766",
          "topics": [
            "0x8c5be1e5ebec7d5bd14f71427d1e84f3dd0314c0f7b2291e5b200ac8c7c3b925",
            "0x000000000000000000000000ddb342ecc94236c29a5307d3757d0724d759453c",
            "0x0000000000000000000000001f7f7f1f9f03ebd10169421713fc91881425aa0a"
          ],
          "data": "0x000000000000000000000000000000000000000000000000000000000007a120",
          "blockHash": "0x3e0b2c78b1cd32c4b615d6a0a555646d3e3c53fe151ddb6eaaf422e35ac4c435",
          "blockNumber": "0x6ac730",
          "transactionHash": "0x8c47330327de01623359fc61463a078a2d3d66a58330f5722a1966bc139d2cc8",
          "transactionIndex": "0x8",
          "logIndex": "0x13",
          "removed": false
        }
      ],
      "status": "0x1",
      "logsBloom": "0x00000000000000000000000000000000000000000000000000000000000000000000000000000000000000000000020000000000000000000000000000200000000000000000000000000000000008000000000000000000000000000000000400000000000000000000000000000000400000000000000000000000400000000000000000000000000000000000000000000000000000000000000000000000120000000000000000000000000000000000000000000000000000000000000000000000000000020000000000000000000000000000000000800000000000000010000000000000000000000000000000000000001000000000000000000000",
      "type": "0x2",
      "effectiveGasPrice": "0x363fb11bc"
    },
    {
      "transactionHash": "0x9a990d509fc54352cd8fb565d846d9357d66980b1390a2a5e23e4b8d8ec01c00",
      "transactionIndex": "0x9",
      "blockHash": "0x3e0b2c78b1cd32c4b615d6a0a555646d3e3c53fe151ddb6eaaf422e35ac4c435",
      "blockNumber": "0x6ac730",
      "from": "0xDdb342ecc94236c29a5307d3757d0724D759453C",
      "to": "0x1F7F7f1F9f03ebd10169421713fC91881425AA0A",
      "cumulativeGasUsed": "0x63a3fa",
      "gasUsed": "0x2744c",
      "contractAddress": null,
      "logs": [
        {
          "address": "0xCa14007Eff0dB1f8135f4C25B34De49AB0d42766",
          "topics": [
            "0x8c5be1e5ebec7d5bd14f71427d1e84f3dd0314c0f7b2291e5b200ac8c7c3b925",
            "0x0000000000000000000000001f7f7f1f9f03ebd10169421713fc91881425aa0a",
            "0x000000000000000000000000ce5485cfb26914c5dce00b9baf0580364dafc7a4"
          ],
          "data": "0x000000000000000000000000000000000000000000000000000000000007a120",
          "blockHash": "0x3e0b2c78b1cd32c4b615d6a0a555646d3e3c53fe151ddb6eaaf422e35ac4c435",
          "blockNumber": "0x6ac730",
          "transactionHash": "0x9a990d509fc54352cd8fb565d846d9357d66980b1390a2a5e23e4b8d8ec01c00",
          "transactionIndex": "0x9",
          "logIndex": "0x14",
          "removed": false
        },
        {
          "address": "0xCa14007Eff0dB1f8135f4C25B34De49AB0d42766",
          "topics": [
            "0x8c5be1e5ebec7d5bd14f71427d1e84f3dd0314c0f7b2291e5b200ac8c7c3b925",
            "0x000000000000000000000000ddb342ecc94236c29a5307d3757d0724d759453c",
            "0x0000000000000000000000001f7f7f1f9f03ebd10169421713fc91881425aa0a"
          ],
          "data": "0x0000000000000000000000000000000000000000000000000000000000000000",
          "blockHash": "0x3e0b2c78b1cd32c4b615d6a0a555646d3e3c53fe151ddb6eaaf422e35ac4c435",
          "blockNumber": "0x6ac730",
          "transactionHash": "0x9a990d509fc54352cd8fb565d846d9357d66980b1390a2a5e23e4b8d8ec01c00",
          "transactionIndex": "0x9",
          "logIndex": "0x15",
          "removed": false
        },
        {
          "address": "0xCa14007Eff0dB1f8135f4C25B34De49AB0d42766",
          "topics": [
            "0xddf252ad1be2c89b69c2b068fc378daa952ba7f163c4a11628f55a4df523b3ef",
            "0x000000000000000000000000ddb342ecc94236c29a5307d3757d0724d759453c",
            "0x0000000000000000000000001f7f7f1f9f03ebd10169421713fc91881425aa0a"
          ],
          "data": "0x000000000000000000000000000000000000000000000000000000000007a120",
          "blockHash": "0x3e0b2c78b1cd32c4b615d6a0a555646d3e3c53fe151ddb6eaaf422e35ac4c435",
          "blockNumber": "0x6ac730",
          "transactionHash": "0x9a990d509fc54352cd8fb565d846d9357d66980b1390a2a5e23e4b8d8ec01c00",
          "transactionIndex": "0x9",
          "logIndex": "0x16",
          "removed": false
        },
        {
          "address": "0xCa14007Eff0dB1f8135f4C25B34De49AB0d42766",
          "topics": [
            "0x8c5be1e5ebec7d5bd14f71427d1e84f3dd0314c0f7b2291e5b200ac8c7c3b925",
            "0x0000000000000000000000001f7f7f1f9f03ebd10169421713fc91881425aa0a",
            "0x000000000000000000000000ce5485cfb26914c5dce00b9baf0580364dafc7a4"
          ],
          "data": "0x0000000000000000000000000000000000000000000000000000000000000000",
          "blockHash": "0x3e0b2c78b1cd32c4b615d6a0a555646d3e3c53fe151ddb6eaaf422e35ac4c435",
          "blockNumber": "0x6ac730",
          "transactionHash": "0x9a990d509fc54352cd8fb565d846d9357d66980b1390a2a5e23e4b8d8ec01c00",
          "transactionIndex": "0x9",
          "logIndex": "0x17",
          "removed": false
        },
        {
          "address": "0xCa14007Eff0dB1f8135f4C25B34De49AB0d42766",
          "topics": [
            "0xddf252ad1be2c89b69c2b068fc378daa952ba7f163c4a11628f55a4df523b3ef",
            "0x0000000000000000000000001f7f7f1f9f03ebd10169421713fc91881425aa0a",
            "0x000000000000000000000000ce5485cfb26914c5dce00b9baf0580364dafc7a4"
          ],
          "data": "0x000000000000000000000000000000000000000000000000000000000007a120",
          "blockHash": "0x3e0b2c78b1cd32c4b615d6a0a555646d3e3c53fe151ddb6eaaf422e35ac4c435",
          "blockNumber": "0x6ac730",
          "transactionHash": "0x9a990d509fc54352cd8fb565d846d9357d66980b1390a2a5e23e4b8d8ec01c00",
          "transactionIndex": "0x9",
          "logIndex": "0x18",
          "removed": false
        },
        {
          "address": "0xE2Bb56ee936fd6433DC0F6e7e3b8365C906AA057",
          "topics": [
            "0xdb80dd488acf86d17c747445b0eabb5d57c541d3bd7b6b87af987858e5066b2b",
            "0x000000000000000000000000ce5485cfb26914c5dce00b9baf0580364dafc7a4",
            "0x0594c1582459ea03f77deaf9eb7e3917d6994a03c13405ba42867f83d85f085d",
            "0x008bce41827dd5484d80312a2e43bc42a896e3fcf75bf84c2b49339168dfa00a"
          ],
          "data": "0x00000000000000000000000000000000000000000000000000000000000000600000000000000000000000000000000000000000000000000000000000002661000000000000000000000000000000000000000000000000002386f26fc100000000000000000000000000000000000000000000000000000000000000000009000000000000000000000000ca14007eff0db1f8135f4c25b34de49ab0d427660000000000000000000000001f7f7f1f9f03ebd10169421713fc91881425aa0a03bbd256734abe14157da0af3a16436d046e1bf2b77bb97567b88d5d530fb7ee000000000000000000000000000000000000000000000000000000000007a1200000000000000000000000000000000000000000000000000000000000000000000000000000000000000000000000000000000000000000000000000000000303bbd256734abe14157da0af3a16436d046e1bf2b77bb97567b88d5d530fb7ee000000000000000000000000000000000000000000000000000000000007a1200000000000000000000000000000000000000000000000000000000000000000",
          "blockHash": "0x3e0b2c78b1cd32c4b615d6a0a555646d3e3c53fe151ddb6eaaf422e35ac4c435",
          "blockNumber": "0x6ac730",
          "transactionHash": "0x9a990d509fc54352cd8fb565d846d9357d66980b1390a2a5e23e4b8d8ec01c00",
          "transactionIndex": "0x9",
          "logIndex": "0x19",
          "removed": false
        },
        {
          "address": "0xcE5485Cfb26914C5dcE00B9BAF0580364daFC7a4",
          "topics": [
            "0x2203a49c69f1a46c1164f5e4a30643dd77b7c59c0ff9bc433256048365c247f1",
            "0x0000000000000000000000001f7f7f1f9f03ebd10169421713fc91881425aa0a",
            "0x000000000000000000000000ca14007eff0db1f8135f4c25b34de49ab0d42766",
            "0x03bbd256734abe14157da0af3a16436d046e1bf2b77bb97567b88d5d530fb7ee"
          ],
          "data": "0x000000000000000000000000000000000000000000000000000000000007a12000000000000000000000000000000000000000000000000000000000000000800000000000000000000000000000000000000000000000000000000000002661000000000000000000000000000000000000000000000000002386f26fc10000000000000000000000000000000000000000000000000000000000000000000303bbd256734abe14157da0af3a16436d046e1bf2b77bb97567b88d5d530fb7ee000000000000000000000000000000000000000000000000000000000007a1200000000000000000000000000000000000000000000000000000000000000000",
          "blockHash": "0x3e0b2c78b1cd32c4b615d6a0a555646d3e3c53fe151ddb6eaaf422e35ac4c435",
          "blockNumber": "0x6ac730",
          "transactionHash": "0x9a990d509fc54352cd8fb565d846d9357d66980b1390a2a5e23e4b8d8ec01c00",
          "transactionIndex": "0x9",
          "logIndex": "0x1a",
          "removed": false
        }
      ],
      "status": "0x1",
      "logsBloom": "0x00000000000002000000000000020000000000000000000000000040000000000000000000000000000000000000020000000000000004000000020000200000000000000000000000000008080008000000000000000040001000000000000400000000100000000000000000000000400000000000000000000010400008002000080000000000000000020000000000008000000200000000000000000010120000400000000000000020000000021000000000000000000000000000000000800002000000024010000000000000000000200000000000800000000000000010000000010000000000020004000000000000001000000000000000000000",
      "type": "0x2",
      "effectiveGasPrice": "0x363fb11bc"
    }
  ],
  "libraries": [],
  "pending": [],
  "returns": {},
  "timestamp": 1730561595,
  "chain": 11155111,
  "multi": false,
  "commit": "5c94acc"
}