{
  "transactions": [
    {
      "hash": "0xb1bc8e576637a4d1fc3339cc45e3ca2bbd1937c94831e60b34556252d0ed5c57",
      "transactionType": "CALL",
      "contractName": "StarkNetToken",
      "contractAddress": "0xCa14007Eff0dB1f8135f4C25B34De49AB0d42766",
      "function": "approve(address,uint256)",
      "arguments": [
        "0xE17191757CfADAE1Fc94A0d191d52aDa5A10eD0c",
        "500000"
      ],
      "transaction": {
        "type": "0x02",
        "from": "0xddb342ecc94236c29a5307d3757d0724d759453c",
        "to": "0xca14007eff0db1f8135f4c25b34de49ab0d42766",
        "gas": "0xfd27",
        "value": "0x0",
        "data": "0x095ea7b3000000000000000000000000e17191757cfadae1fc94a0d191d52ada5a10ed0c000000000000000000000000000000000000000000000000000000000007a120",
        "nonce": "0x17f",
        "accessList": []
      },
      "additionalContracts": [],
      "isFixedGasLimit": false
    },
    {
      "hash": "0x96e6ef2fca5599e77936e2029ef3581d449da890137e3b687a0e2d33c821dd3f",
      "transactionType": "CALL",
      "contractName": null,
      "contractAddress": "0xE17191757CfADAE1Fc94A0d191d52aDa5A10eD0c",
      "function": "depositAndCreateOrder(uint256,uint256,uint128,uint128,address,address,uint128)",
      "arguments": [
        "500000",
        "1688790644293257248594346693575694179189087689031518234438045115982820653038",
        "1730569360",
        "1730569424",
        "0xCa14007Eff0dB1f8135f4C25B34De49AB0d42766",
        "0xCa14007Eff0dB1f8135f4C25B34De49AB0d42766",
        "10000000000000000"
      ],
      "transaction": {
        "type": "0x02",
        "from": "0xddb342ecc94236c29a5307d3757d0724d759453c",
        "to": "0xe17191757cfadae1fc94a0d191d52ada5a10ed0c",
        "gas": "0x362b5",
        "value": "0x2386f26fc10000",
        "data": "0x76d2d72e000000000000000000000000000000000000000000000000000000000007a12003bbd256734abe14157da0af3a16436d046e1bf2b77bb97567b88d5d530fb7ee000000000000000000000000000000000000000000000000000000006726649000000000000000000000000000000000000000000000000000000000672664d0000000000000000000000000ca14007eff0db1f8135f4c25b34de49ab0d42766000000000000000000000000ca14007eff0db1f8135f4c25b34de49ab0d42766000000000000000000000000000000000000000000000000002386f26fc10000",
        "nonce": "0x180",
        "accessList": []
      },
      "additionalContracts": [],
      "isFixedGasLimit": false
    }
  ],
  "receipts": [
    {
      "transactionHash": "0xb1bc8e576637a4d1fc3339cc45e3ca2bbd1937c94831e60b34556252d0ed5c57",
      "transactionIndex": "0x3",
      "blockHash": "0x163437cee08c23cf80074a82998b753eb3269e122ec5cccf1038c2d1592399a5",
      "blockNumber": "0x6ac98c",
      "from": "0xDdb342ecc94236c29a5307d3757d0724D759453C",
      "to": "0xCa14007Eff0dB1f8135f4C25B34De49AB0d42766",
      "cumulativeGasUsed": "0x5786f",
      "gasUsed": "0xb748",
      "contractAddress": null,
      "logs": [
        {
          "address": "0xCa14007Eff0dB1f8135f4C25B34De49AB0d42766",
          "topics": [
            "0x8c5be1e5ebec7d5bd14f71427d1e84f3dd0314c0f7b2291e5b200ac8c7c3b925",
            "0x000000000000000000000000ddb342ecc94236c29a5307d3757d0724d759453c",
            "0x000000000000000000000000e17191757cfadae1fc94a0d191d52ada5a10ed0c"
          ],
          "data": "0x000000000000000000000000000000000000000000000000000000000007a120",
          "blockHash": "0x163437cee08c23cf80074a82998b753eb3269e122ec5cccf1038c2d1592399a5",
          "blockNumber": "0x6ac98c",
          "transactionHash": "0xb1bc8e576637a4d1fc3339cc45e3ca2bbd1937c94831e60b34556252d0ed5c57",
          "transactionIndex": "0x3",
          "logIndex": "0x5",
          "removed": false
        }
      ],
      "status": "0x1",
      "logsBloom": "0x00000000000000000000000000000000000000000000000000000000000000000000000000000000000000000000000000000000000000000000000000200000001000000000000000000000000000000000000000000000000000000000000400000000000000000000000000000080400000000000000000000000400000000000000000000000000000000000000000000000000000000000000000000000020000000000000000000000000000000000000000000000000000000000000000000000000000020000000000000000000000000000000000800000000000000010000000000000000000000000000000000020001000000000000000000000",
      "type": "0x2",
      "effectiveGasPrice": "0x14ad97d3a"
    },
    {
      "transactionHash": "0x96e6ef2fca5599e77936e2029ef3581d449da890137e3b687a0e2d33c821dd3f",
      "transactionIndex": "0x4",
      "blockHash": "0x163437cee08c23cf80074a82998b753eb3269e122ec5cccf1038c2d1592399a5",
      "blockNumber": "0x6ac98c",
      "from": "0xDdb342ecc94236c29a5307d3757d0724D759453C",
      "to": "0xE17191757CfADAE1Fc94A0d191d52aDa5A10eD0c",
      "cumulativeGasUsed": "0x7ebeb",
      "gasUsed": "0x2737c",
      "contractAddress": null,
      "logs": [
        {
          "address": "0xCa14007Eff0dB1f8135f4C25B34De49AB0d42766",
          "topics": [
            "0x8c5be1e5ebec7d5bd14f71427d1e84f3dd0314c0f7b2291e5b200ac8c7c3b925",
            "0x000000000000000000000000e17191757cfadae1fc94a0d191d52ada5a10ed0c",
            "0x000000000000000000000000ce5485cfb26914c5dce00b9baf0580364dafc7a4"
          ],
          "data": "0x000000000000000000000000000000000000000000000000000000000007a120",
          "blockHash": "0x163437cee08c23cf80074a82998b753eb3269e122ec5cccf1038c2d1592399a5",
          "blockNumber": "0x6ac98c",
          "transactionHash": "0x96e6ef2fca5599e77936e2029ef3581d449da890137e3b687a0e2d33c821dd3f",
          "transactionIndex": "0x4",
          "logIndex": "0x6",
          "removed": false
        },
        {
          "address": "0xCa14007Eff0dB1f8135f4C25B34De49AB0d42766",
          "topics": [
            "0x8c5be1e5ebec7d5bd14f71427d1e84f3dd0314c0f7b2291e5b200ac8c7c3b925",
            "0x000000000000000000000000ddb342ecc94236c29a5307d3757d0724d759453c",
            "0x000000000000000000000000e17191757cfadae1fc94a0d191d52ada5a10ed0c"
          ],
          "data": "0x0000000000000000000000000000000000000000000000000000000000000000",
          "blockHash": "0x163437cee08c23cf80074a82998b753eb3269e122ec5cccf1038c2d1592399a5",
          "blockNumber": "0x6ac98c",
          "transactionHash": "0x96e6ef2fca5599e77936e2029ef3581d449da890137e3b687a0e2d33c821dd3f",
          "transactionIndex": "0x4",
          "logIndex": "0x7",
          "removed": false
        },
        {
          "address": "0xCa14007Eff0dB1f8135f4C25B34De49AB0d42766",
          "topics": [
            "0xddf252ad1be2c89b69c2b068fc378daa952ba7f163c4a11628f55a4df523b3ef",
            "0x000000000000000000000000ddb342ecc94236c29a5307d3757d0724d759453c",
            "0x000000000000000000000000e17191757cfadae1fc94a0d191d52ada5a10ed0c"
          ],
          "data": "0x000000000000000000000000000000000000000000000000000000000007a120",
          "blockHash": "0x163437cee08c23cf80074a82998b753eb3269e122ec5cccf1038c2d1592399a5",
          "blockNumber": "0x6ac98c",
          "transactionHash": "0x96e6ef2fca5599e77936e2029ef3581d449da890137e3b687a0e2d33c821dd3f",
          "transactionIndex": "0x4",
          "logIndex": "0x8",
          "removed": false
        },
        {
          "address": "0xCa14007Eff0dB1f8135f4C25B34De49AB0d42766",
          "topics": [
            "0x8c5be1e5ebec7d5bd14f71427d1e84f3dd0314c0f7b2291e5b200ac8c7c3b925",
            "0x000000000000000000000000e17191757cfadae1fc94a0d191d52ada5a10ed0c",
            "0x000000000000000000000000ce5485cfb26914c5dce00b9baf0580364dafc7a4"
          ],
          "data": "0x0000000000000000000000000000000000000000000000000000000000000000",
          "blockHash": "0x163437cee08c23cf80074a82998b753eb3269e122ec5cccf1038c2d1592399a5",
          "blockNumber": "0x6ac98c",
          "transactionHash": "0x96e6ef2fca5599e77936e2029ef3581d449da890137e3b687a0e2d33c821dd3f",
          "transactionIndex": "0x4",
          "logIndex": "0x9",
          "removed": false
        },
        {
          "address": "0xCa14007Eff0dB1f8135f4C25B34De49AB0d42766",
          "topics": [
            "0xddf252ad1be2c89b69c2b068fc378daa952ba7f163c4a11628f55a4df523b3ef",
            "0x000000000000000000000000e17191757cfadae1fc94a0d191d52ada5a10ed0c",
            "0x000000000000000000000000ce5485cfb26914c5dce00b9baf0580364dafc7a4"
          ],
          "data": "0x000000000000000000000000000000000000000000000000000000000007a120",
          "blockHash": "0x163437cee08c23cf80074a82998b753eb3269e122ec5cccf1038c2d1592399a5",
          "blockNumber": "0x6ac98c",
          "transactionHash": "0x96e6ef2fca5599e77936e2029ef3581d449da890137e3b687a0e2d33c821dd3f",
          "transactionIndex": "0x4",
          "logIndex": "0xa",
          "removed": false
        },
        {
          "address": "0xE2Bb56ee936fd6433DC0F6e7e3b8365C906AA057",
          "topics": [
            "0xdb80dd488acf86d17c747445b0eabb5d57c541d3bd7b6b87af987858e5066b2b",
            "0x000000000000000000000000ce5485cfb26914c5dce00b9baf0580364dafc7a4",
            "0x0594c1582459ea03f77deaf9eb7e3917d6994a03c13405ba42867f83d85f085d",
            "0x008bce41827dd5484d80312a2e43bc42a896e3fcf75bf84c2b49339168dfa00a"
          ],
          "data": "0x00000000000000000000000000000000000000000000000000000000000000600000000000000000000000000000000000000000000000000000000000002665000000000000000000000000000000000000000000000000002386f26fc100000000000000000000000000000000000000000000000000000000000000000006000000000000000000000000ca14007eff0db1f8135f4c25b34de49ab0d42766000000000000000000000000e17191757cfadae1fc94a0d191d52ada5a10ed0c03bbd256734abe14157da0af3a16436d046e1bf2b77bb97567b88d5d530fb7ee000000000000000000000000000000000000000000000000000000000007a12000000000000000000000000000000000000000000000000000000000000000000000000000000000000000000000000000000000000000000000000000000000",
          "blockHash": "0x163437cee08c23cf80074a82998b753eb3269e122ec5cccf1038c2d1592399a5",
          "blockNumber": "0x6ac98c",
          "transactionHash": "0x96e6ef2fca5599e77936e2029ef3581d449da890137e3b687a0e2d33c821dd3f",
          "transactionIndex": "0x4",
          "logIndex": "0xb",
          "removed": false
        },
        {
          "address": "0xcE5485Cfb26914C5dcE00B9BAF0580364daFC7a4",
          "topics": [
            "0x2203a49c69f1a46c1164f5e4a30643dd77b7c59c0ff9bc433256048365c247f1",
            "0x000000000000000000000000e17191757cfadae1fc94a0d191d52ada5a10ed0c",
            "0x000000000000000000000000ca14007eff0db1f8135f4c25b34de49ab0d42766",
            "0x03bbd256734abe14157da0af3a16436d046e1bf2b77bb97567b88d5d530fb7ee"
          ],
          "data": "0x000000000000000000000000000000000000000000000000000000000007a12000000000000000000000000000000000000000000000000000000000000000800000000000000000000000000000000000000000000000000000000000002665000000000000000000000000000000000000000000000000002386f26fc100000000000000000000000000000000000000000000000000000000000000000000",
          "blockHash": "0x163437cee08c23cf80074a82998b753eb3269e122ec5cccf1038c2d1592399a5",
          "blockNumber": "0x6ac98c",
          "transactionHash": "0x96e6ef2fca5599e77936e2029ef3581d449da890137e3b687a0e2d33c821dd3f",
          "transactionIndex": "0x4",
          "logIndex": "0xc",
          "removed": false
        },
        {
          "address": "0xE17191757CfADAE1Fc94A0d191d52aDa5A10eD0c",
          "topics": [
            "0xaf43445f7721522b7a3864ed3de53d7e2e658bfa1eeffa18e1e229be68ce2545",
            "0x000000000000000000000000ddb342ecc94236c29a5307d3757d0724d759453c",
            "0x03bbd256734abe14157da0af3a16436d046e1bf2b77bb97567b88d5d530fb7ee"
          ],
          "data": "0x000000000000000000000000000000000000000000000000000000000007a1200000000000000000000000000000000000000000000000000000000000000001",
          "blockHash": "0x163437cee08c23cf80074a82998b753eb3269e122ec5cccf1038c2d1592399a5",
          "blockNumber": "0x6ac98c",
          "transactionHash": "0x96e6ef2fca5599e77936e2029ef3581d449da890137e3b687a0e2d33c821dd3f",
          "transactionIndex": "0x4",
          "logIndex": "0xd",
          "removed": false
        }
      ],
      "status": "0x1",
      "logsBloom": "0x00000200000002000000000000020000000000000000000000000040000000000000000000000000000000000000000000000000000004000000020000200000001000000000000000000008080200000002000000000040001000000000000600000000100000000000000000000080400000000000000000000010400008002000080000000000000000020000000000008000000200000000000000000010020000c00000000000000020000000021000000000000000000000008000000000800002000000024010000000000000000000200000000000800000000000000010000000010000000000020004000000000020001000000000000000000000",
      "type": "0x2",
      "effectiveGasPrice": "0x14ad97d3a"
    }
  ],
  "libraries": [],
  "pending": [],
  "returns": {},
  "timestamp": 1730569429,
  "chain": 11155111,
  "multi": false,
  "commit": "8c1a6b6"
}