{
  "transactions": [
    {
      "hash": "0x30b85f50797f4d026918433a5ebbf2039aa25889ae7cc47e9545f426859a18b7",
      "transactionType": "CALL",
      "contractName": "FiatTokenProxy",
      "contractAddress": "0x1c7D4B196Cb0C7B01d743Fbc6116a902379C7238",
      "function": "approve(address,uint256)",
      "arguments": [
        "0x86dC0B32a5045FFa48D9a60B7e7Ca32F11faCd7B",
        "500000"
      ],
      "transaction": {
        "type": "0x02",
        "from": "0xddb342ecc94236c29a5307d3757d0724d759453c",
        "to": "0x1c7d4b196cb0c7b01d743fbc6116a902379c7238",
        "gas": "0x12b1b",
        "value": "0x0",
        "data": "0x095ea7b300000000000000000000000086dc0b32a5045ffa48d9a60b7e7ca32f11facd7b000000000000000000000000000000000000000000000000000000000007a120",
        "nonce": "0x166",
        "accessList": []
      },
      "additionalContracts": [],
      "isFixedGasLimit": false
    },
    {
      "hash": "0xf409ddd7712da8dcbb267f1a6ad8d62022d16b63a385e62252e9d2efd55db1cd",
      "transactionType": "CALL",
      "contractName": "Proxy",
      "contractAddress": "0x86dC0B32a5045FFa48D9a60B7e7Ca32F11faCd7B",
      "function": "depositWithMessage(address,uint256,uint256,uint256[])",
      "arguments": [
        "0x1c7D4B196Cb0C7B01d743Fbc6116a902379C7238",
        "500000",
        "1688790644293257248594346693575694179189087689031518234438045115982820653038",
        "[1688790644293257248594346693575694179189087689031518234438045115982820653038, 500000, 0]"
      ],
      "transaction": {
        "type": "0x02",
        "from": "0xddb342ecc94236c29a5307d3757d0724d759453c",
        "to": "0x86dc0b32a5045ffa48d9a60b7e7ca32f11facd7b",
        "gas": "0x2cbdf",
        "value": "0x2386f26fc10000",
        "data": "0xbe58b18e0000000000000000000000001c7d4b196cb0c7b01d743fbc6116a902379c7238000000000000000000000000000000000000000000000000000000000007a12003bbd256734abe14157da0af3a16436d046e1bf2b77bb97567b88d5d530fb7ee0000000000000000000000000000000000000000000000000000000000000080000000000000000000000000000000000000000000000000000000000000000303bbd256734abe14157da0af3a16436d046e1bf2b77bb97567b88d5d530fb7ee000000000000000000000000000000000000000000000000000000000007a1200000000000000000000000000000000000000000000000000000000000000000",
        "nonce": "0x167",
        "accessList": []
      },
      "additionalContracts": [],
      "isFixedGasLimit": false
    }
  ],
  "receipts": [
    {
      "transactionHash": "0x30b85f50797f4d026918433a5ebbf2039aa25889ae7cc47e9545f426859a18b7",
      "transactionIndex": "0x2",
      "blockHash": "0x0ce65df3efe8ef511ddcae98acfa96e93188a580f8ea7b5259f7b499ebbab042",
      "blockNumber": "0x6ab32c",
      "from": "0xDdb342ecc94236c29a5307d3757d0724D759453C",
      "to": "0x1c7D4B196Cb0C7B01d743Fbc6116a902379C7238",
      "cumulativeGasUsed": "0x1df92",
      "gasUsed": "0xd88d",
      "contractAddress": null,
      "logs": [
        {
          "address": "0x1c7D4B196Cb0C7B01d743Fbc6116a902379C7238",
          "topics": [
            "0x8c5be1e5ebec7d5bd14f71427d1e84f3dd0314c0f7b2291e5b200ac8c7c3b925",
            "0x000000000000000000000000ddb342ecc94236c29a5307d3757d0724d759453c",
            "0x00000000000000000000000086dc0b32a5045ffa48d9a60b7e7ca32f11facd7b"
          ],
          "data": "0x000000000000000000000000000000000000000000000000000000000007a120",
          "blockHash": "0x0ce65df3efe8ef511ddcae98acfa96e93188a580f8ea7b5259f7b499ebbab042",
          "blockNumber": "0x6ab32c",
          "transactionHash": "0x30b85f50797f4d026918433a5ebbf2039aa25889ae7cc47e9545f426859a18b7",
          "transactionIndex": "0x2",
          "logIndex": "0x1",
          "removed": false
        }
      ],
      "status": "0x1",
      "logsBloom": "0x00000000000000000000000000000000000000000000000000000000000200000000000000000000000000000000000000000000000000000000000000200000000000000000000000000000000000000000000000000000000000000000000400000000000000000000000000000000400000000000000000000000400000000000000000102000000000000000000000000000000000000000000000000000020000000000000000000000000000001000000000000000000000000000000000000000000000000000000000000000000000000000000000000000000000000010008000000000000010000000000000000000000000000000000000000000",
      "type": "0x2",
      "effectiveGasPrice": "0x106e2aa4e"
    },
    {
      "transactionHash": "0xf409ddd7712da8dcbb267f1a6ad8d62022d16b63a385e62252e9d2efd55db1cd",
      "transactionIndex": "0x3",
      "blockHash": "0x0ce65df3efe8ef511ddcae98acfa96e93188a580f8ea7b5259f7b499ebbab042",
      "blockNumber": "0x6ab32c",
      "from": "0xDdb342ecc94236c29a5307d3757d0724D759453C",
      "to": "0x86dC0B32a5045FFa48D9a60B7e7Ca32F11faCd7B",
      "cumulativeGasUsed": "0x3e5da",
      "gasUsed": "0x20648",
      "contractAddress": null,
      "logs": [
        {
          "address": "0x1c7D4B196Cb0C7B01d743Fbc6116a902379C7238",
          "topics": [
            "0xddf252ad1be2c89b69c2b068fc378daa952ba7f163c4a11628f55a4df523b3ef",
            "0x000000000000000000000000ddb342ecc94236c29a5307d3757d0724d759453c",
            "0x00000000000000000000000086dc0b32a5045ffa48d9a60b7e7ca32f11facd7b"
          ],
          "data": "0x000000000000000000000000000000000000000000000000000000000007a120",
          "blockHash": "0x0ce65df3efe8ef511ddcae98acfa96e93188a580f8ea7b5259f7b499ebbab042",
          "blockNumber": "0x6ab32c",
          "transactionHash": "0xf409ddd7712da8dcbb267f1a6ad8d62022d16b63a385e62252e9d2efd55db1cd",
          "transactionIndex": "0x3",
          "logIndex": "0x2",
          "removed": false
        },
        {
          "address": "0xE2Bb56ee936fd6433DC0F6e7e3b8365C906AA057",
          "topics": [
            "0xdb80dd488acf86d17c747445b0eabb5d57c541d3bd7b6b87af987858e5066b2b",
            "0x00000000000000000000000086dc0b32a5045ffa48d9a60b7e7ca32f11facd7b",
            "0x0028729b12ce1140cbc1e7cbc7245455d3c15fa0c7f5d2e9fc8e0441567f6b50",
            "0x008bce41827dd5484d80312a2e43bc42a896e3fcf75bf84c2b49339168dfa00a"
          ],
          "data": "0x00000000000000000000000000000000000000000000000000000000000000600000000000000000000000000000000000000000000000000000000000002654000000000000000000000000000000000000000000000000002386f26fc1000000000000000000000000000000000000000000000000000000000000000000090000000000000000000000001c7d4b196cb0c7b01d743fbc6116a902379c7238000000000000000000000000ddb342ecc94236c29a5307d3757d0724d759453c03bbd256734abe14157da0af3a16436d046e1bf2b77bb97567b88d5d530fb7ee000000000000000000000000000000000000000000000000000000000007a1200000000000000000000000000000000000000000000000000000000000000000000000000000000000000000000000000000000000000000000000000000000303bbd256734abe14157da0af3a16436d046e1bf2b77bb97567b88d5d530fb7ee000000000000000000000000000000000000000000000000000000000007a1200000000000000000000000000000000000000000000000000000000000000000",
          "blockHash": "0x0ce65df3efe8ef511ddcae98acfa96e93188a580f8ea7b5259f7b499ebbab042",
          "blockNumber": "0x6ab32c",
          "transactionHash": "0xf409ddd7712da8dcbb267f1a6ad8d62022d16b63a385e62252e9d2efd55db1cd",
          "transactionIndex": "0x3",
          "logIndex": "0x3",
          "removed": false
        },
        {
          "address": "0x86dC0B32a5045FFa48D9a60B7e7Ca32F11faCd7B",
          "topics": [
            "0x2203a49c69f1a46c1164f5e4a30643dd77b7c59c0ff9bc433256048365c247f1",
            "0x000000000000000000000000ddb342ecc94236c29a5307d3757d0724d759453c",
            "0x0000000000000000000000001c7d4b196cb0c7b01d743fbc6116a902379c7238",
            "0x03bbd256734abe14157da0af3a16436d046e1bf2b77bb97567b88d5d530fb7ee"
          ],
          "data": "0x000000000000000000000000000000000000000000000000000000000007a12000000000000000000000000000000000000000000000000000000000000000800000000000000000000000000000000000000000000000000000000000002654000000000000000000000000000000000000000000000000002386f26fc10000000000000000000000000000000000000000000000000000000000000000000303bbd256734abe14157da0af3a16436d046e1bf2b77bb97567b88d5d530fb7ee000000000000000000000000000000000000000000000000000000000007a1200000000000000000000000000000000000000000000000000000000000000000",
          "blockHash": "0x0ce65df3efe8ef511ddcae98acfa96e93188a580f8ea7b5259f7b499ebbab042",
          "blockNumber": "0x6ab32c",
          "transactionHash": "0xf409ddd7712da8dcbb267f1a6ad8d62022d16b63a385e62252e9d2efd55db1cd",
          "transactionIndex": "0x3",
          "logIndex": "0x4",
          "removed": false
        }
      ],
      "status": "0x1",
      "logsBloom": "0x00000000000002000000000000020000000000000000000000000040000200000000000000000000000000000000000000000000000004000000420000000000100000000000000000000008000000000000000000000040001000000000000400000000100000000000000000000000400200000000000000000210400080000000080000102000000000020004000000008000000000000000000000000010000000400000000000000020000000021000008000000000000002000000000000800002000000000000000000000000000000000000000000000000000000000000008000000000000010000000000000000000000000000000000000000000",
      "type": "0x2",
      "effectiveGasPrice": "0x106e2aa4e"
    }
  ],
  "libraries": [],
  "pending": [],
  "returns": {},
  "timestamp": 1730496410,
  "chain": 11155111,
  "multi": false,
  "commit": "5c94acc"
}